{
    "_format": "hh-sol-artifact-1",
    "contractName": "CFXsTestToMain",
    "sourceName": "contracts/V1ToV2.sol",
    "abi": [
        {
            "inputs": [],
            "stateMutability": "nonpayable",
            "type": "constructor"
        },
        {
            "anonymous": false,
            "inputs": [
                {
                    "indexed": false,
                    "internalType": "uint256[]",
                    "name": "id",
                    "type": "uint256[]"
                },
                {
                    "indexed": false,
                    "internalType": "address",
                    "name": "to",
                    "type": "address"
                }
            ],
            "name": "CFXsCreated",
            "type": "event"
        },
        {
            "inputs": [],
            "name": "CFXsOldCounter",
            "outputs": [
                {
                    "internalType": "uint256",
                    "name": "",
                    "type": "uint256"
                }
            ],
            "stateMutability": "view",
            "type": "function"
        },
        {
            "inputs": [
                {
                    "internalType": "uint256[]",
                    "name": "Id",
                    "type": "uint256[]"
                }
            ],
            "name": "ExTestToMain",
            "outputs": [
                {
                    "internalType": "bool",
                    "name": "success",
                    "type": "bool"
                }
            ],
            "stateMutability": "nonpayable",
            "type": "function"
        },
        {
            "inputs": [
                {
                    "internalType": "address",
                    "name": "_oldAddr",
                    "type": "address"
                },
                {
                    "internalType": "address",
                    "name": "_newAddr",
                    "type": "address"
                }
            ],
            "name": "SetupCFXsAddr",
            "outputs": [],
            "stateMutability": "nonpayable",
            "type": "function"
        },
        {
            "inputs": [],
            "name": "_setting",
            "outputs": [
                {
                    "internalType": "address",
                    "name": "",
                    "type": "address"
                }
            ],
            "stateMutability": "view",
            "type": "function"
        },
        {
            "inputs": [
                {
                    "internalType": "address",
                    "name": "",
                    "type": "address"
                }
            ],
            "name": "allowed",
            "outputs": [
                {
                    "internalType": "bool",
                    "name": "",
                    "type": "bool"
                }
            ],
            "stateMutability": "view",
            "type": "function"
        },
        {
            "inputs": [
                {
                    "internalType": "address",
                    "name": "newAddr",
                    "type": "address"
                }
            ],
            "name": "changeSetupAddr",
            "outputs": [],
            "stateMutability": "nonpayable",
            "type": "function"
        },
        {
            "inputs": [],
            "name": "counterinfo",
            "outputs": [
                {
                    "internalType": "uint256",
                    "name": "",
                    "type": "uint256"
                }
            ],
            "stateMutability": "nonpayable",
            "type": "function"
        },
        {
            "inputs": [
                {
                    "internalType": "uint256",
                    "name": "",
                    "type": "uint256"
                }
            ],
            "name": "minted",
            "outputs": [
                {
                    "internalType": "bool",
                    "name": "",
                    "type": "bool"
                }
            ],
            "stateMutability": "view",
            "type": "function"
        }
    ],
    "bytecode": "0x60806040526301406f4060005534801561001857600080fd5b5033600160006101000a81548173ffffffffffffffffffffffffffffffffffffffff021916908373ffffffffffffffffffffffffffffffffffffffff16021790555061130d806100696000396000f3fe608060405234801561001057600080fd5b50600436106100885760003560e01c80637dc0bf3f1161005b5780637dc0bf3f14610117578063815b54c914610147578063875a27cd14610163578063d63a8e111461017f57610088565b8063265bd3831461008d5780632bdceb55146100ab5780633d5b0e5c146100c957806362f3e739146100e7575b600080fd5b6100956101af565b6040516100a2919061099c565b60405180910390f35b6100b36101d5565b6040516100c091906109d0565b60405180910390f35b6100d1610306565b6040516100de91906109d0565b60405180910390f35b61010160048036038101906100fc9190610b84565b61030c565b60405161010e9190610be8565b60405180910390f35b610131600480360381019061012c9190610c03565b610674565b60405161013e9190610be8565b60405180910390f35b610161600480360381019061015c9190610c5c565b610694565b005b61017d60048036038101906101789190610c9c565b6107aa565b005b61019960048036038101906101949190610c9c565b61087e565b6040516101a69190610be8565b60405180910390f35b600160009054906101000a900473ffffffffffffffffffffffffffffffffffffffff1681565b6000600160009054906101000a900473ffffffffffffffffffffffffffffffffffffffff1673ffffffffffffffffffffffffffffffffffffffff163373ffffffffffffffffffffffffffffffffffffffff1614610267576040517f08c379a000000000000000000000000000000000000000000000000000000000815260040161025e90610d26565b60405180910390fd5b600460009054906101000a900473ffffffffffffffffffffffffffffffffffffffff1673ffffffffffffffffffffffffffffffffffffffff1663b5c81b426040518163ffffffff1660e01b8152600401602060405180830381865afa1580156102d4573d6000803e3d6000fd5b505050506040513d601f19601f820116820180604052508101906102f89190610d5b565b600081905550600054905090565b60005481565b60006040825110610352576040517f08c379a000000000000000000000000000000000000000000000000000000000815260040161034990610dd4565b60405180910390fd5b6000825111610396576040517f08c379a000000000000000000000000000000000000000000000000000000000815260040161038d90610e40565b60405180910390fd5b600080600080600090505b855181101561062e5760001515600260008884815181106103c5576103c4610e60565b5b6020026020010151815260200190815260200160002060009054906101000a900460ff1615151461042b576040517f08c379a000000000000000000000000000000000000000000000000000000000815260040161042290610edb565b60405180910390fd5b60005486828151811061044157610440610e60565b5b602002602001015110610489576040517f08c379a000000000000000000000000000000000000000000000000000000000815260040161048090610f47565b60405180910390fd5b85818151811061049c5761049b610e60565b5b602002602001015192506104af8361089e565b909192505080935081955050508373ffffffffffffffffffffffffffffffffffffffff163373ffffffffffffffffffffffffffffffffffffffff161461052a576040517f08c379a000000000000000000000000000000000000000000000000000000000815260040161052190610fb3565b60405180910390fd5b600560009054906101000a900473ffffffffffffffffffffffffffffffffffffffff1673ffffffffffffffffffffffffffffffffffffffff16637c10b0ec87838151811061057b5761057a610e60565b5b602002602001015133856040518463ffffffff1660e01b81526004016105a393929190610fd3565b600060405180830381600087803b1580156105bd57600080fd5b505af11580156105d1573d6000803e3d6000fd5b505050506001600260008884815181106105ee576105ed610e60565b5b6020026020010151815260200190815260200160002060006101000a81548160ff021916908315150217905550808061062690611039565b9150506103a1565b507fe9917b8ff3aec56e7babfc290d0d97633179de348d7dcb05bd35532b8c5b9bdc853360405161066092919061113f565b60405180910390a160019350505050919050565b60026020528060005260406000206000915054906101000a900460ff1681565b600160009054906101000a900473ffffffffffffffffffffffffffffffffffffffff1673ffffffffffffffffffffffffffffffffffffffff163373ffffffffffffffffffffffffffffffffffffffff1614610724576040517f08c379a000000000000000000000000000000000000000000000000000000000815260040161071b90610d26565b60405180910390fd5b80600560006101000a81548173ffffffffffffffffffffffffffffffffffffffff021916908373ffffffffffffffffffffffffffffffffffffffff16021790555081600460006101000a81548173ffffffffffffffffffffffffffffffffffffffff021916908373ffffffffffffffffffffffffffffffffffffffff1602179055505050565b600160009054906101000a900473ffffffffffffffffffffffffffffffffffffffff1673ffffffffffffffffffffffffffffffffffffffff163373ffffffffffffffffffffffffffffffffffffffff161461083a576040517f08c379a000000000000000000000000000000000000000000000000000000000815260040161083190610d26565b60405180910390fd5b80600160006101000a81548173ffffffffffffffffffffffffffffffffffffffff021916908373ffffffffffffffffffffffffffffffffffffffff16021790555050565b60036020528060005260406000206000915054906101000a900460ff1681565b600080600060606000600460009054906101000a900473ffffffffffffffffffffffffffffffffffffffff1690508073ffffffffffffffffffffffffffffffffffffffff1663d06d13ba876040518263ffffffff1660e01b815260040161090591906109d0565b600060405180830381865afa158015610922573d6000803e3d6000fd5b505050506040513d6000823e3d601f19601f8201168201806040525081019061094b9190611254565b9450945094509450509193509193565b600073ffffffffffffffffffffffffffffffffffffffff82169050919050565b60006109868261095b565b9050919050565b6109968161097b565b82525050565b60006020820190506109b1600083018461098d565b92915050565b6000819050919050565b6109ca816109b7565b82525050565b60006020820190506109e560008301846109c1565b92915050565b6000604051905090565b600080fd5b600080fd5b600080fd5b6000601f19601f8301169050919050565b7f4e487b7100000000000000000000000000000000000000000000000000000000600052604160045260246000fd5b610a4d82610a04565b810181811067ffffffffffffffff82111715610a6c57610a6b610a15565b5b80604052505050565b6000610a7f6109eb565b9050610a8b8282610a44565b919050565b600067ffffffffffffffff821115610aab57610aaa610a15565b5b602082029050602081019050919050565b600080fd5b610aca816109b7565b8114610ad557600080fd5b50565b600081359050610ae781610ac1565b92915050565b6000610b00610afb84610a90565b610a75565b90508083825260208201905060208402830185811115610b2357610b22610abc565b5b835b81811015610b4c5780610b388882610ad8565b845260208401935050602081019050610b25565b5050509392505050565b600082601f830112610b6b57610b6a6109ff565b5b8135610b7b848260208601610aed565b91505092915050565b600060208284031215610b9a57610b996109f5565b5b600082013567ffffffffffffffff811115610bb857610bb76109fa565b5b610bc484828501610b56565b91505092915050565b60008115159050919050565b610be281610bcd565b82525050565b6000602082019050610bfd6000830184610bd9565b92915050565b600060208284031215610c1957610c186109f5565b5b6000610c2784828501610ad8565b91505092915050565b610c398161097b565b8114610c4457600080fd5b50565b600081359050610c5681610c30565b92915050565b60008060408385031215610c7357610c726109f5565b5b6000610c8185828601610c47565b9250506020610c9285828601610c47565b9150509250929050565b600060208284031215610cb257610cb16109f5565b5b6000610cc084828501610c47565b91505092915050565b600082825260208201905092915050565b7f4f6e6c792073657474696e672100000000000000000000000000000000000000600082015250565b6000610d10600d83610cc9565b9150610d1b82610cda565b602082019050919050565b60006020820190508181036000830152610d3f81610d03565b9050919050565b600081519050610d5581610ac1565b92915050565b600060208284031215610d7157610d706109f5565b5b6000610d7f84828501610d46565b91505092915050565b7f4d61782036340000000000000000000000000000000000000000000000000000600082015250565b6000610dbe600683610cc9565b9150610dc982610d88565b602082019050919050565b60006020820190508181036000830152610ded81610db1565b9050919050565b7f496420617272617920656d707479000000000000000000000000000000000000600082015250565b6000610e2a600e83610cc9565b9150610e3582610df4565b602082019050919050565b60006020820190508181036000830152610e5981610e1d565b9050919050565b7f4e487b7100000000000000000000000000000000000000000000000000000000600052603260045260246000fd5b7f496420416c7265616479206d696e746564000000000000000000000000000000600082015250565b6000610ec5601183610cc9565b9150610ed082610e8f565b602082019050919050565b60006020820190508181036000830152610ef481610eb8565b9050919050565b7f4d6178204964206e656564203c20434658734f6c64436f756e74657200000000600082015250565b6000610f31601c83610cc9565b9150610f3c82610efb565b602082019050919050565b60006020820190508181036000830152610f6081610f24565b9050919050565b7f596f757220617265204e4f54206f776e65720000000000000000000000000000600082015250565b6000610f9d601283610cc9565b9150610fa882610f67565b602082019050919050565b60006020820190508181036000830152610fcc81610f90565b9050919050565b6000606082019050610fe860008301866109c1565b610ff5602083018561098d565b61100260408301846109c1565b949350505050565b7f4e487b7100000000000000000000000000000000000000000000000000000000600052601160045260246000fd5b6000611044826109b7565b91507fffffffffffffffffffffffffffffffffffffffffffffffffffffffffffffffff82036110765761107561100a565b5b600182019050919050565b600081519050919050565b600082825260208201905092915050565b6000819050602082019050919050565b6110b6816109b7565b82525050565b60006110c883836110ad565b60208301905092915050565b6000602082019050919050565b60006110ec82611081565b6110f6818561108c565b93506111018361109d565b8060005b8381101561113257815161111988826110bc565b9750611124836110d4565b925050600181019050611105565b5085935050505092915050565b6000604082019050818103600083015261115981856110e1565b9050611168602083018461098d565b9392505050565b60008151905061117e81610c30565b92915050565b600080fd5b600067ffffffffffffffff8211156111a4576111a3610a15565b5b6111ad82610a04565b9050602081019050919050565b60005b838110156111d85780820151818401526020810190506111bd565b60008484015250505050565b60006111f76111f284611189565b610a75565b90508281526020810184848401111561121357611212611184565b5b61121e8482856111ba565b509392505050565b600082601f83011261123b5761123a6109ff565b5b815161124b8482602086016111e4565b91505092915050565b6000806000806080858703121561126e5761126d6109f5565b5b600061127c87828801610d46565b945050602061128d8782880161116f565b935050604061129e87828801610d46565b925050606085015167ffffffffffffffff8111156112bf576112be6109fa565b5b6112cb87828801611226565b9150509295919450925056fea2646970667358221220f5c684d415fc0ea9a811673e52a7273a97127c97098ab56c91b3b23df212468c64736f6c63430008130033",
    "linkReferences": {},
    "deployedLinkReferences": {}
}