{
    "_format": "hh-sol-artifact-1",
    "contractName": "CFXsContract",
    "sourceName": "contracts/CFXs.sol",
    "abi": [
        {
            "anonymous": false,
            "inputs": [
                {
                    "indexed": false,
                    "internalType": "uint256",
                    "name": "id",
                    "type": "uint256"
                },
                {
                    "indexed": false,
                    "internalType": "address",
                    "name": "to",
                    "type": "address"
                },
                {
                    "indexed": false,
                    "internalType": "uint256",
                    "name": "amount",
                    "type": "uint256"
                },
                {
                    "indexed": false,
                    "internalType": "string",
                    "name": "data",
                    "type": "string"
                }
            ],
            "name": "CFXsCreated",
            "type": "event"
        },
        {
            "anonymous": false,
            "inputs": [
                {
                    "indexed": false,
                    "internalType": "uint256",
                    "name": "id",
                    "type": "uint256"
                }
            ],
            "name": "CFXsDeleted",
            "type": "event"
        },
        {
            "anonymous": false,
            "inputs": [
                {
                    "indexed": false,
                    "internalType": "uint256",
                    "name": "id",
                    "type": "uint256"
                },
                {
                    "indexed": false,
                    "internalType": "address",
                    "name": "to",
                    "type": "address"
                },
                {
                    "indexed": false,
                    "internalType": "uint256",
                    "name": "amount",
                    "type": "uint256"
                },
                {
                    "indexed": false,
                    "internalType": "string",
                    "name": "data",
                    "type": "string"
                }
            ],
            "name": "CFXsEvent",
            "type": "event"
        },
        {
            "anonymous": false,
            "inputs": [
                {
                    "indexed": true,
                    "internalType": "uint256",
                    "name": "CFXsId",
                    "type": "uint256"
                },
                {
                    "indexed": false,
                    "internalType": "uint256",
                    "name": "etherAmount",
                    "type": "uint256"
                },
                {
                    "indexed": false,
                    "internalType": "uint256",
                    "name": "locktime",
                    "type": "uint256"
                }
            ],
            "name": "CFXsLocked",
            "type": "event"
        },
        {
            "anonymous": false,
            "inputs": [
                {
                    "indexed": true,
                    "internalType": "uint256",
                    "name": "CFXsId",
                    "type": "uint256"
                }
            ],
            "name": "CFXsUnlocked",
            "type": "event"
        },
        {
            "inputs": [],
            "name": "CFXsCounter",
            "outputs": [
                {
                    "internalType": "uint256",
                    "name": "",
                    "type": "uint256"
                }
            ],
            "stateMutability": "view",
            "type": "function"
        },
        {
            "inputs": [
                {
                    "internalType": "uint256",
                    "name": "",
                    "type": "uint256"
                }
            ],
            "name": "CFXss",
            "outputs": [
                {
                    "internalType": "uint256",
                    "name": "id",
                    "type": "uint256"
                },
                {
                    "internalType": "address",
                    "name": "owner",
                    "type": "address"
                },
                {
                    "internalType": "uint256",
                    "name": "amount",
                    "type": "uint256"
                },
                {
                    "internalType": "string",
                    "name": "data",
                    "type": "string"
                }
            ],
            "stateMutability": "view",
            "type": "function"
        },
        {
            "inputs": [],
            "name": "CreateCFXs",
            "outputs": [],
            "stateMutability": "nonpayable",
            "type": "function"
        },
        {
            "inputs": [
                {
                    "internalType": "uint256",
                    "name": "CFXsId",
                    "type": "uint256"
                },
                {
                    "internalType": "address",
                    "name": "_to",
                    "type": "address"
                },
                {
                    "internalType": "uint256",
                    "name": "_amount",
                    "type": "uint256"
                }
            ],
            "name": "DangerTransfer",
            "outputs": [],
            "stateMutability": "nonpayable",
            "type": "function"
        },
        {
            "inputs": [
                {
                    "internalType": "uint256",
                    "name": "",
                    "type": "uint256"
                }
            ],
            "name": "LockedCFXs",
            "outputs": [
                {
                    "internalType": "uint256",
                    "name": "_ether",
                    "type": "uint256"
                },
                {
                    "internalType": "uint256",
                    "name": "locktime",
                    "type": "uint256"
                }
            ],
            "stateMutability": "view",
            "type": "function"
        },
        {
            "inputs": [
                {
                    "internalType": "uint256",
                    "name": "CFXsId",
                    "type": "uint256"
                },
                {
                    "internalType": "uint256",
                    "name": "_ether",
                    "type": "uint256"
                },
                {
                    "internalType": "uint256",
                    "name": "locktime",
                    "type": "uint256"
                }
            ],
            "name": "LockingScript",
            "outputs": [],
            "stateMutability": "nonpayable",
            "type": "function"
        },
        {
            "inputs": [
                {
                    "internalType": "uint256",
                    "name": "CFXsId",
                    "type": "uint256"
                }
            ],
            "name": "OwnerUnlockingScript",
            "outputs": [],
            "stateMutability": "nonpayable",
            "type": "function"
        },
        {
            "inputs": [
                {
                    "internalType": "uint256",
                    "name": "CFXsId",
                    "type": "uint256"
                }
            ],
            "name": "UnlockingScript",
            "outputs": [],
            "stateMutability": "payable",
            "type": "function"
        },
        {
            "inputs": [
                {
                    "internalType": "address",
                    "name": "_addr",
                    "type": "address"
                }
            ],
            "name": "balanceOf",
            "outputs": [
                {
                    "internalType": "uint256",
                    "name": "",
                    "type": "uint256"
                }
            ],
            "stateMutability": "view",
            "type": "function"
        },
        {
            "inputs": [
                {
                    "internalType": "uint256",
                    "name": "_id",
                    "type": "uint256"
                }
            ],
            "name": "getLockStates",
            "outputs": [
                {
                    "internalType": "bool",
                    "name": "",
                    "type": "bool"
                }
            ],
            "stateMutability": "view",
            "type": "function"
        },
        {
            "inputs": [
                {
                    "internalType": "uint256",
                    "name": "CFXsId",
                    "type": "uint256"
                },
                {
                    "internalType": "string",
                    "name": "_data",
                    "type": "string"
                }
            ],
            "name": "inscribe",
            "outputs": [],
            "stateMutability": "nonpayable",
            "type": "function"
        },
        {
            "inputs": [
                {
                    "components": [
                        {
                            "internalType": "uint256[]",
                            "name": "inputs",
                            "type": "uint256[]"
                        },
                        {
                            "components": [
                                {
                                    "internalType": "address",
                                    "name": "owner",
                                    "type": "address"
                                },
                                {
                                    "internalType": "uint256",
                                    "name": "amount",
                                    "type": "uint256"
                                },
                                {
                                    "internalType": "string",
                                    "name": "data",
                                    "type": "string"
                                }
                            ],
                            "internalType": "struct CFXsContract.OutputCFXsData[]",
                            "name": "outputs",
                            "type": "tuple[]"
                        }
                    ],
                    "internalType": "struct CFXsContract.Transaction",
                    "name": "_tx",
                    "type": "tuple"
                }
            ],
            "name": "processTransaction",
            "outputs": [],
            "stateMutability": "nonpayable",
            "type": "function"
        },
        {
            "inputs": [],
            "name": "totalSupply",
            "outputs": [
                {
                    "internalType": "uint256",
                    "name": "",
                    "type": "uint256"
                }
            ],
            "stateMutability": "view",
            "type": "function"
        },
        {
            "stateMutability": "payable",
            "type": "receive"
        }
    ],
    "bytecode": "0x60806040526000600355600060045534801561001a57600080fd5b50612e0b8061002a6000396000f3fe6080604052600436106100c65760003560e01c806370a082311161007f578063b5c81b4211610059578063b5c81b42146102ae578063c365a4cc146102d9578063d06d13ba14610302578063ed619c201461034257610118565b806370a082311461023e5780637d80e2ca1461027b578063b27ad94e1461029257610118565b806318160ddd1461011d57806327139fe51461014857806349c1742f146101865780635054ff53146101c35780636068ef1e146101ec57806361e56c2c1461021557610118565b36610118576000341461010e576040517f08c379a000000000000000000000000000000000000000000000000000000000815260040161010590611c6a565b60405180910390fd5b61011661036b565b005b600080fd5b34801561012957600080fd5b506101326105af565b60405161013f9190611ca3565b60405180910390f35b34801561015457600080fd5b5061016f600480360381019061016a9190611cfe565b6105b9565b60405161017d929190611d2b565b60405180910390f35b34801561019257600080fd5b506101ad60048036038101906101a89190611cfe565b6105dd565b6040516101ba9190611d6f565b60405180910390f35b3480156101cf57600080fd5b506101ea60048036038101906101e591906121e9565b6105ff565b005b3480156101f857600080fd5b50610213600480360381019061020e9190612232565b610c60565b005b34801561022157600080fd5b5061023c60048036038101906102379190611cfe565b610e65565b005b34801561024a57600080fd5b5061026560048036038101906102609190612285565b610fe4565b6040516102729190611ca3565b60405180910390f35b34801561028757600080fd5b5061029061036b565b005b6102ac60048036038101906102a79190611cfe565b61102d565b005b3480156102ba57600080fd5b506102c3611301565b6040516102d09190611ca3565b60405180910390f35b3480156102e557600080fd5b5061030060048036038101906102fb91906122b2565b611307565b005b34801561030e57600080fd5b5061032960048036038101906103249190611cfe565b6118bd565b6040516103399493929190612382565b60405180910390f35b34801561034e57600080fd5b50610369600480360381019061036491906123ce565b611995565b005b3273ffffffffffffffffffffffffffffffffffffffff163373ffffffffffffffffffffffffffffffffffffffff16146103d9576040517f08c379a00000000000000000000000000000000000000000000000000000000081526004016103d090612476565b60405180910390fd5b6301406f4060035410610421576040517f08c379a0000000000000000000000000000000000000000000000000000000008152600401610418906124e2565b60405180910390fd5b600061042b611b92565b9050600060405180608001604052808381526020013373ffffffffffffffffffffffffffffffffffffffff16815260200160018152602001604051806020016040528060008152508152509050806000808481526020019081526020016000206000820151816000015560208201518160010160006101000a81548173ffffffffffffffffffffffffffffffffffffffff021916908373ffffffffffffffffffffffffffffffffffffffff1602179055506040820151816002015560608201518160030190816104fb919061270e565b5090505060018060003373ffffffffffffffffffffffffffffffffffffffff1673ffffffffffffffffffffffffffffffffffffffff168152602001908152602001600020600082825461054e919061280f565b92505081905550600160046000828254610568919061280f565b925050819055507fc619c1c30b367378bda467d6bebdd6f994ab4a6e274528b8707fa97c4752ca48823360016040516105a393929190612869565b60405180910390a15050565b6000600454905090565b60026020528060005260406000206000915090508060000154908060010154905082565b6000426002600084815260200190815260200160002060010154119050919050565b600560009054906101000a900460ff161561064f576040517f08c379a0000000000000000000000000000000000000000000000000000000008152600401610646906128ff565b60405180910390fd5b6001600560006101000a81548160ff0219169083151502179055506018816000015151111580156106865750601881602001515111155b6106c5576040517f08c379a00000000000000000000000000000000000000000000000000000000081526004016106bc9061296b565b60405180910390fd5b60008060005b8360000151518110156108e6576000806000866000015184815181106106f4576106f361298b565b5b6020026020010151815260200190815260200160002090506000151561071d82600001546105dd565b15151461075f576040517f08c379a000000000000000000000000000000000000000000000000000000000815260040161075690612a06565b60405180910390fd5b3373ffffffffffffffffffffffffffffffffffffffff168160010160009054906101000a900473ffffffffffffffffffffffffffffffffffffffff1673ffffffffffffffffffffffffffffffffffffffff16146107f1576040517f08c379a00000000000000000000000000000000000000000000000000000000081526004016107e890612a72565b60405180910390fd5b806002015484610801919061280f565b93506000808660000151848151811061081d5761081c61298b565b5b602002602001015181526020019081526020016000206000808201600090556001820160006101000a81549073ffffffffffffffffffffffffffffffffffffffff0219169055600282016000905560038201600061087b9190611bb0565b50507f54e9d3d6bf8951e4535558a5850039b2eb9776c9a1fa240f1c51d2ee046f4ac7856000015183815181106108b5576108b461298b565b5b60200260200101516040516108ca9190611ca3565b60405180910390a15080806108de90612a92565b9150506106cb565b5081600160003373ffffffffffffffffffffffffffffffffffffffff1673ffffffffffffffffffffffffffffffffffffffff16815260200190815260200160002060008282546109369190612ada565b9250508190555060005b836020015151811015610bfd57836020015181815181106109645761096361298b565b5b6020026020010151602001518261097b919061280f565b91506000610987611b92565b90506040518060800160405280828152602001866020015184815181106109b1576109b061298b565b5b60200260200101516000015173ffffffffffffffffffffffffffffffffffffffff168152602001866020015184815181106109ef576109ee61298b565b5b602002602001015160200151815260200186602001518481518110610a1757610a1661298b565b5b6020026020010151604001518152506000808381526020019081526020016000206000820151816000015560208201518160010160006101000a81548173ffffffffffffffffffffffffffffffffffffffff021916908373ffffffffffffffffffffffffffffffffffffffff160217905550604082015181600201556060820151816003019081610aa8919061270e565b5090505084602001518281518110610ac357610ac261298b565b5b6020026020010151602001516001600087602001518581518110610aea57610ae961298b565b5b60200260200101516000015173ffffffffffffffffffffffffffffffffffffffff1673ffffffffffffffffffffffffffffffffffffffff1681526020019081526020016000206000828254610b3f919061280f565b925050819055507f83c5a3ed95d27f7cb0f9946efaa434a0cf237615a04272bc2bf92d7eb3cf97618186602001518481518110610b7f57610b7e61298b565b5b60200260200101516000015187602001518581518110610ba257610ba161298b565b5b60200260200101516020015188602001518681518110610bc557610bc461298b565b5b602002602001015160400151604051610be19493929190612382565b60405180910390a1508080610bf590612a92565b915050610940565b50808214610c40576040517f08c379a0000000000000000000000000000000000000000000000000000000008152600401610c3790612b80565b60405180910390fd5b50506000600560006101000a81548160ff02191690831515021790555050565b600560009054906101000a900460ff1615610cb0576040517f08c379a0000000000000000000000000000000000000000000000000000000008152600401610ca7906128ff565b60405180910390fd5b6001600560006101000a81548160ff0219169083151502179055503373ffffffffffffffffffffffffffffffffffffffff1660008085815260200190815260200160002060010160009054906101000a900473ffffffffffffffffffffffffffffffffffffffff1673ffffffffffffffffffffffffffffffffffffffff1614610d6e576040517f08c379a0000000000000000000000000000000000000000000000000000000008152600401610d6590612a72565b60405180910390fd5b60001515610d7b846105dd565b151514610dbd576040517f08c379a0000000000000000000000000000000000000000000000000000000008152600401610db490612a06565b60405180910390fd5b816002600085815260200190815260200160002060000181905550610e1081610de69190612ba0565b42610df1919061280f565b6002600085815260200190815260200160002060010181905550827fa461494b4bb5b609c6502d7cd54f6572aa434d20cd7717a2b0ee197abae9eec98383604051610e3d929190611d2b565b60405180910390a26000600560006101000a81548160ff021916908315150217905550505050565b600560009054906101000a900460ff1615610eb5576040517f08c379a0000000000000000000000000000000000000000000000000000000008152600401610eac906128ff565b60405180910390fd5b6001600560006101000a81548160ff0219169083151502179055503373ffffffffffffffffffffffffffffffffffffffff1660008083815260200190815260200160002060010160009054906101000a900473ffffffffffffffffffffffffffffffffffffffff1673ffffffffffffffffffffffffffffffffffffffff1614610f73576040517f08c379a0000000000000000000000000000000000000000000000000000000008152600401610f6a90612a72565b60405180910390fd5b6002600082815260200190815260200160002060008082016000905560018201600090555050807f837ebae0d82e9b2e4a3296822f99dfb8a51ff0fb2b7cbde01ce97aad8ea9fde260405160405180910390a26000600560006101000a81548160ff02191690831515021790555050565b6000600160008373ffffffffffffffffffffffffffffffffffffffff1673ffffffffffffffffffffffffffffffffffffffff168152602001908152602001600020549050919050565b600560009054906101000a900460ff161561107d576040517f08c379a0000000000000000000000000000000000000000000000000000000008152600401611074906128ff565b60405180910390fd5b6001600560006101000a81548160ff0219169083151502179055506110a1816105dd565b6110e0576040517f08c379a00000000000000000000000000000000000000000000000000000000081526004016110d790612c2e565b60405180910390fd5b60026000828152602001908152602001600020600001543414611138576040517f08c379a000000000000000000000000000000000000000000000000000000000815260040161112f90612c9a565b60405180910390fd5b600080600083815260200190815260200160002060010160009054906101000a900473ffffffffffffffffffffffffffffffffffffffff1690506000600260008481526020019081526020016000206000015490503360008085815260200190815260200160002060010160006101000a81548173ffffffffffffffffffffffffffffffffffffffff021916908373ffffffffffffffffffffffffffffffffffffffff160217905550600260008481526020019081526020016000206000808201600090556001820160009055505060008273ffffffffffffffffffffffffffffffffffffffff168260405161122d90612ce8565b60006040518083038185875af1925050503d806000811461126a576040519150601f19603f3d011682016040523d82523d6000602084013e61126f565b606091505b50509050806112b3576040517f08c379a00000000000000000000000000000000000000000000000000000000081526004016112aa90612d49565b60405180910390fd5b837f837ebae0d82e9b2e4a3296822f99dfb8a51ff0fb2b7cbde01ce97aad8ea9fde260405160405180910390a25050506000600560006101000a81548160ff02191690831515021790555050565b60035481565b600560009054906101000a900460ff1615611357576040517f08c379a000000000000000000000000000000000000000000000000000000000815260040161134e906128ff565b60405180910390fd5b6001600560006101000a81548160ff021916908315150217905550600080600085815260200190815260200160002090503373ffffffffffffffffffffffffffffffffffffffff168160010160009054906101000a900473ffffffffffffffffffffffffffffffffffffffff1673ffffffffffffffffffffffffffffffffffffffff161461141a576040517f08c379a000000000000000000000000000000000000000000000000000000000815260040161141190612a72565b60405180910390fd5b6000151561142b82600001546105dd565b15151461146d576040517f08c379a000000000000000000000000000000000000000000000000000000000815260040161146490612a06565b60405180910390fd5b600082118015611481575080600201548211155b6114c0576040517f08c379a00000000000000000000000000000000000000000000000000000000081526004016114b790612db5565b60405180910390fd5b8181600201540361151357828160010160006101000a81548173ffffffffffffffffffffffffffffffffffffffff021916908373ffffffffffffffffffffffffffffffffffffffff1602179055506117f0565b60008282600201546115259190612ada565b90506000611531611b92565b9050600060405180608001604052808381526020013373ffffffffffffffffffffffffffffffffffffffff168152602001848152602001604051806020016040528060008152508152509050806000808481526020019081526020016000206000820151816000015560208201518160010160006101000a81548173ffffffffffffffffffffffffffffffffffffffff021916908373ffffffffffffffffffffffffffffffffffffffff160217905550604082015181600201556060820151816003019081611600919061270e565b509050507f83c5a3ed95d27f7cb0f9946efaa434a0cf237615a04272bc2bf92d7eb3cf976182338560405161163793929190612869565b60405180910390a16000611649611b92565b9050600060405180608001604052808381526020018973ffffffffffffffffffffffffffffffffffffffff168152602001888152602001604051806020016040528060008152508152509050806000808481526020019081526020016000206000820151816000015560208201518160010160006101000a81548173ffffffffffffffffffffffffffffffffffffffff021916908373ffffffffffffffffffffffffffffffffffffffff160217905550604082015181600201556060820151816003019081611718919061270e565b509050507f83c5a3ed95d27f7cb0f9946efaa434a0cf237615a04272bc2bf92d7eb3cf976182898960405161174f93929190612869565b60405180910390a16000808a81526020019081526020016000206000808201600090556001820160006101000a81549073ffffffffffffffffffffffffffffffffffffffff021916905560028201600090556003820160006117b19190611bb0565b50507f54e9d3d6bf8951e4535558a5850039b2eb9776c9a1fa240f1c51d2ee046f4ac7896040516117e29190611ca3565b60405180910390a150505050505b81600160003373ffffffffffffffffffffffffffffffffffffffff1673ffffffffffffffffffffffffffffffffffffffff168152602001908152602001600020600082825461183f9190612ada565b9250508190555081600160008573ffffffffffffffffffffffffffffffffffffffff1673ffffffffffffffffffffffffffffffffffffffff1681526020019081526020016000206000828254611895919061280f565b92505081905550506000600560006101000a81548160ff021916908315150217905550505050565b60006020528060005260406000206000915090508060000154908060010160009054906101000a900473ffffffffffffffffffffffffffffffffffffffff169080600201549080600301805461191290612531565b80601f016020809104026020016040519081016040528092919081815260200182805461193e90612531565b801561198b5780601f106119605761010080835404028352916020019161198b565b820191906000526020600020905b81548152906001019060200180831161196e57829003601f168201915b5050505050905084565b600560009054906101000a900460ff16156119e5576040517f08c379a00000000000000000000000000000000000000000000000000000000081526004016119dc906128ff565b60405180910390fd5b6001600560006101000a81548160ff021916908315150217905550600080600084815260200190815260200160002090503373ffffffffffffffffffffffffffffffffffffffff168160010160009054906101000a900473ffffffffffffffffffffffffffffffffffffffff1673ffffffffffffffffffffffffffffffffffffffff1614611aa8576040517f08c379a0000000000000000000000000000000000000000000000000000000008152600401611a9f90612a72565b60405180910390fd5b60001515611ab982600001546105dd565b151514611afb576040517f08c379a0000000000000000000000000000000000000000000000000000000008152600401611af290612a06565b60405180910390fd5b81816003019081611b0c919061270e565b507f83c5a3ed95d27f7cb0f9946efaa434a0cf237615a04272bc2bf92d7eb3cf9761838260010160009054906101000a900473ffffffffffffffffffffffffffffffffffffffff16836002015485604051611b6a9493929190612382565b60405180910390a1506000600560006101000a81548160ff0219169083151502179055505050565b600060036000815480929190611ba790612a92565b91905055905090565b508054611bbc90612531565b6000825580601f10611bce5750611bed565b601f016020900490600052602060002090810190611bec9190611bf0565b5b50565b5b80821115611c09576000816000905550600101611bf1565b5090565b600082825260208201905092915050565b7f4e6f2076616c7565000000000000000000000000000000000000000000000000600082015250565b6000611c54600883611c0d565b9150611c5f82611c1e565b602082019050919050565b60006020820190508181036000830152611c8381611c47565b9050919050565b6000819050919050565b611c9d81611c8a565b82525050565b6000602082019050611cb86000830184611c94565b92915050565b6000604051905090565b600080fd5b600080fd5b611cdb81611c8a565b8114611ce657600080fd5b50565b600081359050611cf881611cd2565b92915050565b600060208284031215611d1457611d13611cc8565b5b6000611d2284828501611ce9565b91505092915050565b6000604082019050611d406000830185611c94565b611d4d6020830184611c94565b9392505050565b60008115159050919050565b611d6981611d54565b82525050565b6000602082019050611d846000830184611d60565b92915050565b600080fd5b6000601f19601f8301169050919050565b7f4e487b7100000000000000000000000000000000000000000000000000000000600052604160045260246000fd5b611dd882611d8f565b810181811067ffffffffffffffff82111715611df757611df6611da0565b5b80604052505050565b6000611e0a611cbe565b9050611e168282611dcf565b919050565b600080fd5b600080fd5b600067ffffffffffffffff821115611e4057611e3f611da0565b5b602082029050602081019050919050565b600080fd5b6000611e69611e6484611e25565b611e00565b90508083825260208201905060208402830185811115611e8c57611e8b611e51565b5b835b81811015611eb55780611ea18882611ce9565b845260208401935050602081019050611e8e565b5050509392505050565b600082601f830112611ed457611ed3611e20565b5b8135611ee4848260208601611e56565b91505092915050565b600067ffffffffffffffff821115611f0857611f07611da0565b5b602082029050602081019050919050565b600073ffffffffffffffffffffffffffffffffffffffff82169050919050565b6000611f4482611f19565b9050919050565b611f5481611f39565b8114611f5f57600080fd5b50565b600081359050611f7181611f4b565b92915050565b600080fd5b600067ffffffffffffffff821115611f9757611f96611da0565b5b611fa082611d8f565b9050602081019050919050565b82818337600083830152505050565b6000611fcf611fca84611f7c565b611e00565b905082815260208101848484011115611feb57611fea611f77565b5b611ff6848285611fad565b509392505050565b600082601f83011261201357612012611e20565b5b8135612023848260208601611fbc565b91505092915050565b60006060828403121561204257612041611d8a565b5b61204c6060611e00565b9050600061205c84828501611f62565b600083015250602061207084828501611ce9565b602083015250604082013567ffffffffffffffff81111561209457612093611e1b565b5b6120a084828501611ffe565b60408301525092915050565b60006120bf6120ba84611eed565b611e00565b905080838252602082019050602084028301858111156120e2576120e1611e51565b5b835b8181101561212957803567ffffffffffffffff81111561210757612106611e20565b5b808601612114898261202c565b855260208501945050506020810190506120e4565b5050509392505050565b600082601f83011261214857612147611e20565b5b81356121588482602086016120ac565b91505092915050565b60006040828403121561217757612176611d8a565b5b6121816040611e00565b9050600082013567ffffffffffffffff8111156121a1576121a0611e1b565b5b6121ad84828501611ebf565b600083015250602082013567ffffffffffffffff8111156121d1576121d0611e1b565b5b6121dd84828501612133565b60208301525092915050565b6000602082840312156121ff576121fe611cc8565b5b600082013567ffffffffffffffff81111561221d5761221c611ccd565b5b61222984828501612161565b91505092915050565b60008060006060848603121561224b5761224a611cc8565b5b600061225986828701611ce9565b935050602061226a86828701611ce9565b925050604061227b86828701611ce9565b9150509250925092565b60006020828403121561229b5761229a611cc8565b5b60006122a984828501611f62565b91505092915050565b6000806000606084860312156122cb576122ca611cc8565b5b60006122d986828701611ce9565b93505060206122ea86828701611f62565b92505060406122fb86828701611ce9565b9150509250925092565b61230e81611f39565b82525050565b600081519050919050565b60005b8381101561233d578082015181840152602081019050612322565b60008484015250505050565b600061235482612314565b61235e8185611c0d565b935061236e81856020860161231f565b61237781611d8f565b840191505092915050565b60006080820190506123976000830187611c94565b6123a46020830186612305565b6123b16040830185611c94565b81810360608301526123c38184612349565b905095945050505050565b600080604083850312156123e5576123e4611cc8565b5b60006123f385828601611ce9565b925050602083013567ffffffffffffffff81111561241457612413611ccd565b5b61242085828601611ffe565b9150509250929050565b7f4f6e6c7920454f41210000000000000000000000000000000000000000000000600082015250565b6000612460600983611c0d565b915061246b8261242a565b602082019050919050565b6000602082019050818103600083015261248f81612453565b9050919050565b7f4d61782043465873206c696d6974207265616368656400000000000000000000600082015250565b60006124cc601683611c0d565b91506124d782612496565b602082019050919050565b600060208201905081810360008301526124fb816124bf565b9050919050565b7f4e487b7100000000000000000000000000000000000000000000000000000000600052602260045260246000fd5b6000600282049050600182168061254957607f821691505b60208210810361255c5761255b612502565b5b50919050565b60008190508160005260206000209050919050565b60006020601f8301049050919050565b600082821b905092915050565b6000600883026125c47fffffffffffffffffffffffffffffffffffffffffffffffffffffffffffffffff82612587565b6125ce8683612587565b95508019841693508086168417925050509392505050565b6000819050919050565b600061260b61260661260184611c8a565b6125e6565b611c8a565b9050919050565b6000819050919050565b612625836125f0565b61263961263182612612565b848454612594565b825550505050565b600090565b61264e612641565b61265981848461261c565b505050565b5b8181101561267d57612672600082612646565b60018101905061265f565b5050565b601f8211156126c25761269381612562565b61269c84612577565b810160208510156126ab578190505b6126bf6126b785612577565b83018261265e565b50505b505050565b600082821c905092915050565b60006126e5600019846008026126c7565b1980831691505092915050565b60006126fe83836126d4565b9150826002028217905092915050565b61271782612314565b67ffffffffffffffff8111156127305761272f611da0565b5b61273a8254612531565b612745828285612681565b600060209050601f8311600181146127785760008415612766578287015190505b61277085826126f2565b8655506127d8565b601f19841661278686612562565b60005b828110156127ae57848901518255600182019150602085019450602081019050612789565b868310156127cb57848901516127c7601f8916826126d4565b8355505b6001600288020188555050505b505050505050565b7f4e487b7100000000000000000000000000000000000000000000000000000000600052601160045260246000fd5b600061281a82611c8a565b915061282583611c8a565b925082820190508082111561283d5761283c6127e0565b5b92915050565b50565b6000612853600083611c0d565b915061285e82612843565b600082019050919050565b600060808201905061287e6000830186611c94565b61288b6020830185612305565b6128986040830184611c94565b81810360608301526128a981612846565b9050949350505050565b7f4e6f207265656e7472616e637920616c6c6f7765642100000000000000000000600082015250565b60006128e9601683611c0d565b91506128f4826128b3565b602082019050919050565b60006020820190508181036000830152612918816128dc565b9050919050565b7f546f6f206c6f6e6720696e707574732f6f757470757473206c656e6774682100600082015250565b6000612955601f83611c0d565b91506129608261291f565b602082019050919050565b6000602082019050818103600083015261298481612948565b9050919050565b7f4e487b7100000000000000000000000000000000000000000000000000000000600052603260045260246000fd5b7f416c7265616479206c6f636b6564000000000000000000000000000000000000600082015250565b60006129f0600e83611c0d565b91506129fb826129ba565b602082019050919050565b60006020820190508181036000830152612a1f816129e3565b9050919050565b7f43465873206e6f74206f776e65642062792073656e6465720000000000000000600082015250565b6000612a5c601883611c0d565b9150612a6782612a26565b602082019050919050565b60006020820190508181036000830152612a8b81612a4f565b9050919050565b6000612a9d82611c8a565b91507fffffffffffffffffffffffffffffffffffffffffffffffffffffffffffffffff8203612acf57612ace6127e0565b5b600182019050919050565b6000612ae582611c8a565b9150612af083611c8a565b9250828203905081811115612b0857612b076127e0565b5b92915050565b7f496e70757420616e64206f757470757420616d6f756e747320646f206e6f742060008201527f6d61746368000000000000000000000000000000000000000000000000000000602082015250565b6000612b6a602583611c0d565b9150612b7582612b0e565b604082019050919050565b60006020820190508181036000830152612b9981612b5d565b9050919050565b6000612bab82611c8a565b9150612bb683611c8a565b9250828202612bc481611c8a565b91508282048414831517612bdb57612bda6127e0565b5b5092915050565b7f4e6f74206c6f636b656400000000000000000000000000000000000000000000600082015250565b6000612c18600a83611c0d565b9150612c2382612be2565b602082019050919050565b60006020820190508181036000830152612c4781612c0b565b9050919050565b7f4e6f7420656e6f75676820657468657200000000000000000000000000000000600082015250565b6000612c84601083611c0d565b9150612c8f82612c4e565b602082019050919050565b60006020820190508181036000830152612cb381612c77565b9050919050565b600081905092915050565b6000612cd2600083612cba565b9150612cdd82612843565b600082019050919050565b6000612cf382612cc5565b9150819050919050565b7f4574686572207472616e73666572206661696c65640000000000000000000000600082015250565b6000612d33601583611c0d565b9150612d3e82612cfd565b602082019050919050565b60006020820190508181036000830152612d6281612d26565b9050919050565b7f496e76616c6964207472616e7366657220616d6f756e74000000000000000000600082015250565b6000612d9f601783611c0d565b9150612daa82612d69565b602082019050919050565b60006020820190508181036000830152612dce81612d92565b905091905056fea264697066735822122080810c36a40037eaad184f3854aed07e8c5a19201f0a40a4262eae1f4ff8cf4764736f6c63430008130033",
    "linkReferences": {},
    "deployedLinkReferences": {}
}