{
    "_format": "hh-sol-artifact-1",
    "contractName": "CFXsContractMain",
    "sourceName": "contracts/CFXsV2.sol",
    "abi": [
        {
            "inputs": [
                {
                    "internalType": "address",
                    "name": "_onlyMinter",
                    "type": "address"
                }
            ],
            "stateMutability": "nonpayable",
            "type": "constructor"
        },
        {
            "anonymous": false,
            "inputs": [
                {
                    "indexed": false,
                    "internalType": "uint256[]",
                    "name": "id",
                    "type": "uint256[]"
                }
            ],
            "name": "CFXsBatchTransfer",
            "type": "event"
        },
        {
            "anonymous": false,
            "inputs": [
                {
                    "indexed": false,
                    "internalType": "uint256",
                    "name": "id",
                    "type": "uint256"
                },
                {
                    "indexed": false,
                    "internalType": "address",
                    "name": "to",
                    "type": "address"
                },
                {
                    "indexed": false,
                    "internalType": "uint256",
                    "name": "amount",
                    "type": "uint256"
                },
                {
                    "indexed": false,
                    "internalType": "string",
                    "name": "data",
                    "type": "string"
                }
            ],
            "name": "CFXsCreated",
            "type": "event"
        },
        {
            "anonymous": false,
            "inputs": [
                {
                    "indexed": false,
                    "internalType": "uint256",
                    "name": "id",
                    "type": "uint256"
                }
            ],
            "name": "CFXsDeleted",
            "type": "event"
        },
        {
            "anonymous": false,
            "inputs": [
                {
                    "indexed": false,
                    "internalType": "uint256",
                    "name": "id",
                    "type": "uint256"
                },
                {
                    "indexed": false,
                    "internalType": "address",
                    "name": "to",
                    "type": "address"
                },
                {
                    "indexed": false,
                    "internalType": "uint256",
                    "name": "amount",
                    "type": "uint256"
                },
                {
                    "indexed": false,
                    "internalType": "string",
                    "name": "data",
                    "type": "string"
                },
                {
                    "indexed": false,
                    "internalType": "address",
                    "name": "dataCreator",
                    "type": "address"
                }
            ],
            "name": "CFXsEvent",
            "type": "event"
        },
        {
            "anonymous": false,
            "inputs": [
                {
                    "indexed": true,
                    "internalType": "uint256",
                    "name": "CFXsId",
                    "type": "uint256"
                },
                {
                    "indexed": false,
                    "internalType": "uint256",
                    "name": "etherAmount",
                    "type": "uint256"
                },
                {
                    "indexed": false,
                    "internalType": "uint256",
                    "name": "locktime",
                    "type": "uint256"
                }
            ],
            "name": "CFXsLocked",
            "type": "event"
        },
        {
            "anonymous": false,
            "inputs": [
                {
                    "indexed": false,
                    "internalType": "uint256",
                    "name": "id",
                    "type": "uint256"
                }
            ],
            "name": "CFXsTransfer",
            "type": "event"
        },
        {
            "anonymous": false,
            "inputs": [
                {
                    "indexed": true,
                    "internalType": "uint256",
                    "name": "CFXsId",
                    "type": "uint256"
                }
            ],
            "name": "CFXsUnlocked",
            "type": "event"
        },
        {
            "inputs": [],
            "name": "CFXsBridge",
            "outputs": [
                {
                    "internalType": "address",
                    "name": "",
                    "type": "address"
                }
            ],
            "stateMutability": "view",
            "type": "function"
        },
        {
            "inputs": [],
            "name": "CFXsCounter",
            "outputs": [
                {
                    "internalType": "uint256",
                    "name": "",
                    "type": "uint256"
                }
            ],
            "stateMutability": "view",
            "type": "function"
        },
        {
            "inputs": [
                {
                    "internalType": "uint256",
                    "name": "",
                    "type": "uint256"
                }
            ],
            "name": "CFXss",
            "outputs": [
                {
                    "internalType": "uint256",
                    "name": "id",
                    "type": "uint256"
                },
                {
                    "internalType": "address",
                    "name": "owner",
                    "type": "address"
                },
                {
                    "internalType": "uint256",
                    "name": "amount",
                    "type": "uint256"
                },
                {
                    "internalType": "string",
                    "name": "data",
                    "type": "string"
                },
                {
                    "internalType": "address",
                    "name": "dataCreator",
                    "type": "address"
                },
                {
                    "internalType": "uint256",
                    "name": "dataTimeStamp",
                    "type": "uint256"
                }
            ],
            "stateMutability": "view",
            "type": "function"
        },
        {
            "inputs": [
                {
                    "internalType": "uint256",
                    "name": "",
                    "type": "uint256"
                }
            ],
            "name": "LockedCFXs",
            "outputs": [
                {
                    "internalType": "uint256",
                    "name": "USDId",
                    "type": "uint256"
                },
                {
                    "internalType": "uint256",
                    "name": "amount",
                    "type": "uint256"
                },
                {
                    "internalType": "uint256",
                    "name": "locktime",
                    "type": "uint256"
                }
            ],
            "stateMutability": "view",
            "type": "function"
        },
        {
            "inputs": [
                {
                    "internalType": "uint256",
                    "name": "CFXsId",
                    "type": "uint256"
                },
                {
                    "internalType": "uint256",
                    "name": "USDId",
                    "type": "uint256"
                },
                {
                    "internalType": "uint256",
                    "name": "_amount",
                    "type": "uint256"
                },
                {
                    "internalType": "uint256",
                    "name": "lockhours",
                    "type": "uint256"
                }
            ],
            "name": "LockingScript",
            "outputs": [],
            "stateMutability": "nonpayable",
            "type": "function"
        },
        {
            "inputs": [
                {
                    "internalType": "uint256[]",
                    "name": "CFXsIds",
                    "type": "uint256[]"
                },
                {
                    "internalType": "uint256[]",
                    "name": "USDId",
                    "type": "uint256[]"
                },
                {
                    "internalType": "uint256[]",
                    "name": "_amount",
                    "type": "uint256[]"
                },
                {
                    "internalType": "uint256",
                    "name": "lockhours",
                    "type": "uint256"
                }
            ],
            "name": "LockingScriptbatch",
            "outputs": [],
            "stateMutability": "nonpayable",
            "type": "function"
        },
        {
            "inputs": [],
            "name": "MAX_CFXs_COUNT",
            "outputs": [
                {
                    "internalType": "uint256",
                    "name": "",
                    "type": "uint256"
                }
            ],
            "stateMutability": "view",
            "type": "function"
        },
        {
            "inputs": [
                {
                    "internalType": "uint256",
                    "name": "CFXsId",
                    "type": "uint256"
                }
            ],
            "name": "OwnerUnlockingScript",
            "outputs": [],
            "stateMutability": "nonpayable",
            "type": "function"
        },
        {
            "inputs": [],
            "name": "ToERC20721Bridge",
            "outputs": [
                {
                    "internalType": "address",
                    "name": "",
                    "type": "address"
                }
            ],
            "stateMutability": "view",
            "type": "function"
        },
        {
            "inputs": [
                {
                    "internalType": "uint256",
                    "name": "",
                    "type": "uint256"
                }
            ],
            "name": "TransferIndex",
            "outputs": [
                {
                    "internalType": "uint256",
                    "name": "id",
                    "type": "uint256"
                },
                {
                    "internalType": "address",
                    "name": "from",
                    "type": "address"
                },
                {
                    "internalType": "address",
                    "name": "to",
                    "type": "address"
                }
            ],
            "stateMutability": "view",
            "type": "function"
        },
        {
            "inputs": [
                {
                    "internalType": "uint256",
                    "name": "",
                    "type": "uint256"
                }
            ],
            "name": "USDAddress",
            "outputs": [
                {
                    "internalType": "address",
                    "name": "",
                    "type": "address"
                }
            ],
            "stateMutability": "view",
            "type": "function"
        },
        {
            "inputs": [],
            "name": "USDStorageAddr",
            "outputs": [
                {
                    "internalType": "address",
                    "name": "",
                    "type": "address"
                }
            ],
            "stateMutability": "view",
            "type": "function"
        },
        {
            "inputs": [
                {
                    "internalType": "uint256",
                    "name": "",
                    "type": "uint256"
                }
            ],
            "name": "USDrate",
            "outputs": [
                {
                    "internalType": "uint256",
                    "name": "",
                    "type": "uint256"
                }
            ],
            "stateMutability": "view",
            "type": "function"
        },
        {
            "inputs": [
                {
                    "internalType": "uint256",
                    "name": "CFXsId",
                    "type": "uint256"
                },
                {
                    "internalType": "uint256",
                    "name": "_USDId",
                    "type": "uint256"
                },
                {
                    "internalType": "uint256",
                    "name": "_amount",
                    "type": "uint256"
                }
            ],
            "name": "UnlockingScript",
            "outputs": [],
            "stateMutability": "nonpayable",
            "type": "function"
        },
        {
            "inputs": [
                {
                    "internalType": "uint256[]",
                    "name": "CFXsIds",
                    "type": "uint256[]"
                },
                {
                    "internalType": "uint256[]",
                    "name": "_USDId",
                    "type": "uint256[]"
                },
                {
                    "internalType": "uint256[]",
                    "name": "_amount",
                    "type": "uint256[]"
                }
            ],
            "name": "UnlockingScriptbatch",
            "outputs": [],
            "stateMutability": "nonpayable",
            "type": "function"
        },
        {
            "inputs": [],
            "name": "_starttime",
            "outputs": [
                {
                    "internalType": "uint256",
                    "name": "",
                    "type": "uint256"
                }
            ],
            "stateMutability": "view",
            "type": "function"
        },
        {
            "inputs": [
                {
                    "internalType": "address",
                    "name": "_addr",
                    "type": "address"
                }
            ],
            "name": "balanceOf",
            "outputs": [
                {
                    "internalType": "uint256",
                    "name": "",
                    "type": "uint256"
                }
            ],
            "stateMutability": "view",
            "type": "function"
        },
        {
            "inputs": [
                {
                    "internalType": "uint256",
                    "name": "CFXsIds",
                    "type": "uint256"
                },
                {
                    "internalType": "address",
                    "name": "_owner",
                    "type": "address"
                },
                {
                    "internalType": "uint256",
                    "name": "_amount",
                    "type": "uint256"
                }
            ],
            "name": "bridgeMint",
            "outputs": [],
            "stateMutability": "nonpayable",
            "type": "function"
        },
        {
            "inputs": [
                {
                    "internalType": "uint256[]",
                    "name": "CFXsIds",
                    "type": "uint256[]"
                },
                {
                    "internalType": "address",
                    "name": "_from",
                    "type": "address"
                }
            ],
            "name": "bridgeTransfer",
            "outputs": [],
            "stateMutability": "nonpayable",
            "type": "function"
        },
        {
            "inputs": [
                {
                    "internalType": "address",
                    "name": "newAddr",
                    "type": "address"
                }
            ],
            "name": "changeSetupAddr",
            "outputs": [],
            "stateMutability": "nonpayable",
            "type": "function"
        },
        {
            "inputs": [],
            "name": "freeTime",
            "outputs": [
                {
                    "internalType": "uint256",
                    "name": "",
                    "type": "uint256"
                }
            ],
            "stateMutability": "view",
            "type": "function"
        },
        {
            "inputs": [
                {
                    "internalType": "uint256",
                    "name": "_id",
                    "type": "uint256"
                }
            ],
            "name": "getLockStates",
            "outputs": [
                {
                    "internalType": "bool",
                    "name": "",
                    "type": "bool"
                }
            ],
            "stateMutability": "view",
            "type": "function"
        },
        {
            "inputs": [
                {
                    "internalType": "uint256",
                    "name": "CFXsId",
                    "type": "uint256"
                },
                {
                    "internalType": "string",
                    "name": "_data",
                    "type": "string"
                }
            ],
            "name": "inscribe",
            "outputs": [],
            "stateMutability": "nonpayable",
            "type": "function"
        },
        {
            "inputs": [
                {
                    "internalType": "uint256",
                    "name": "",
                    "type": "uint256"
                }
            ],
            "name": "minted",
            "outputs": [
                {
                    "internalType": "bool",
                    "name": "",
                    "type": "bool"
                }
            ],
            "stateMutability": "view",
            "type": "function"
        },
        {
            "inputs": [
                {
                    "internalType": "uint256[]",
                    "name": "_inputs",
                    "type": "uint256[]"
                },
                {
                    "components": [
                        {
                            "internalType": "address",
                            "name": "owner",
                            "type": "address"
                        },
                        {
                            "internalType": "uint256",
                            "name": "amount",
                            "type": "uint256"
                        },
                        {
                            "internalType": "string",
                            "name": "data",
                            "type": "string"
                        }
                    ],
                    "internalType": "struct CFXsContractMain.OutputCFXsData[]",
                    "name": "_outputs",
                    "type": "tuple[]"
                }
            ],
            "name": "processTransaction",
            "outputs": [],
            "stateMutability": "nonpayable",
            "type": "function"
        },
        {
            "inputs": [
                {
                    "internalType": "address",
                    "name": "ERCbridgeAddr",
                    "type": "address"
                }
            ],
            "name": "setToERCbridge",
            "outputs": [],
            "stateMutability": "nonpayable",
            "type": "function"
        },
        {
            "inputs": [
                {
                    "internalType": "address[10]",
                    "name": "USD",
                    "type": "address[10]"
                },
                {
                    "internalType": "uint256[10]",
                    "name": "rate",
                    "type": "uint256[10]"
                }
            ],
            "name": "setUSDAddr",
            "outputs": [],
            "stateMutability": "nonpayable",
            "type": "function"
        },
        {
            "inputs": [
                {
                    "internalType": "address",
                    "name": "usdAddr",
                    "type": "address"
                }
            ],
            "name": "setUSDStoreAddr",
            "outputs": [],
            "stateMutability": "nonpayable",
            "type": "function"
        },
        {
            "inputs": [
                {
                    "internalType": "uint256",
                    "name": "",
                    "type": "uint256"
                }
            ],
            "name": "sumOfUSD",
            "outputs": [
                {
                    "internalType": "uint256",
                    "name": "",
                    "type": "uint256"
                }
            ],
            "stateMutability": "view",
            "type": "function"
        },
        {
            "inputs": [],
            "name": "totalSupply",
            "outputs": [
                {
                    "internalType": "uint256",
                    "name": "",
                    "type": "uint256"
                }
            ],
            "stateMutability": "view",
            "type": "function"
        },
        {
            "inputs": [],
            "name": "transactionCount",
            "outputs": [
                {
                    "internalType": "uint256",
                    "name": "",
                    "type": "uint256"
                }
            ],
            "stateMutability": "view",
            "type": "function"
        },
        {
            "inputs": [
                {
                    "internalType": "uint256",
                    "name": "",
                    "type": "uint256"
                }
            ],
            "name": "transactionInfo",
            "outputs": [
                {
                    "internalType": "uint256",
                    "name": "inputsNum",
                    "type": "uint256"
                },
                {
                    "internalType": "uint256",
                    "name": "outputsNum",
                    "type": "uint256"
                }
            ],
            "stateMutability": "view",
            "type": "function"
        },
        {
            "inputs": [
                {
                    "internalType": "uint256",
                    "name": "",
                    "type": "uint256"
                },
                {
                    "internalType": "uint256",
                    "name": "",
                    "type": "uint256"
                }
            ],
            "name": "transactionInputs",
            "outputs": [
                {
                    "internalType": "uint256",
                    "name": "",
                    "type": "uint256"
                }
            ],
            "stateMutability": "view",
            "type": "function"
        },
        {
            "inputs": [
                {
                    "internalType": "uint256",
                    "name": "",
                    "type": "uint256"
                },
                {
                    "internalType": "uint256",
                    "name": "",
                    "type": "uint256"
                }
            ],
            "name": "transactionOutputs",
            "outputs": [
                {
                    "internalType": "uint256",
                    "name": "",
                    "type": "uint256"
                }
            ],
            "stateMutability": "view",
            "type": "function"
        },
        {
            "inputs": [
                {
                    "internalType": "uint256[]",
                    "name": "CFXsIds",
                    "type": "uint256[]"
                },
                {
                    "internalType": "address",
                    "name": "_to",
                    "type": "address"
                }
            ],
            "name": "transfer",
            "outputs": [],
            "stateMutability": "nonpayable",
            "type": "function"
        },
        {
            "inputs": [
                {
                    "internalType": "uint256",
                    "name": "CFXsId",
                    "type": "uint256"
                },
                {
                    "internalType": "address",
                    "name": "_to",
                    "type": "address"
                }
            ],
            "name": "transfer",
            "outputs": [],
            "stateMutability": "nonpayable",
            "type": "function"
        }
    ],
    "bytecode": "0x60806040526301c9c38060155560006016553480156200001e57600080fd5b50604051620060a8380380620060a883398181016040528101906200004491906200017e565b80601760016101000a81548173ffffffffffffffffffffffffffffffffffffffff021916908373ffffffffffffffffffffffffffffffffffffffff160217905550336000806101000a81548173ffffffffffffffffffffffffffffffffffffffff021916908373ffffffffffffffffffffffffffffffffffffffff16021790555042602e8190555033601960006101000a81548173ffffffffffffffffffffffffffffffffffffffff021916908373ffffffffffffffffffffffffffffffffffffffff16021790555050620001b0565b600080fd5b600073ffffffffffffffffffffffffffffffffffffffff82169050919050565b6000620001468262000119565b9050919050565b620001588162000139565b81146200016457600080fd5b50565b60008151905062000178816200014d565b92915050565b60006020828403121562000197576200019662000114565b5b6000620001a78482850162000167565b91505092915050565b615ee880620001c06000396000f3fe608060405234801561001057600080fd5b506004361061021c5760003560e01c806389ffc95711610125578063b8a1cdb6116100ad578063ea9dedaf1161007c578063ea9dedaf1461067a578063ed619c2014610698578063f02042b7146106b4578063f4fae995146106d0578063f86f757d146107015761021c565b8063b8a1cdb6146105d9578063c0b9bf911461060b578063c6b2757714610627578063d06d13ba146106455761021c565b8063acfdc1c7116100f4578063acfdc1c714610535578063b52dd6a014610565578063b5c81b4214610581578063b7760c8f1461059f578063b77bf600146105bb5761021c565b806389ffc957146104af57806397401eda146104cb578063a5715f5b146104e9578063a8f69366146105055761021c565b806361e56c2c116101a85780637c10b0ec116101775780637c10b0ec1461040d5780637dc0bf3f146104295780638229ffb614610459578063875a27cd14610475578063895be89b146104915761021c565b806361e56c2c146103855780636dd5063e146103a157806370a08231146103bf57806376f70b95146103ef5761021c565b806327139fe5116101ef57806327139fe5146102a75780632bcb5531146102d957806347cc5f0e1461030957806349c1742f146103395780635e3cc41e146103695761021c565b806308a5d469146102215780630a7906c5146102515780630c8986dc1461026d57806318160ddd14610289575b600080fd5b61023b6004803603810190610236919061438c565b61071d565b60405161024891906143fa565b60405180910390f35b61026b6004803603810190610266919061456e565b610753565b005b61028760048036038101906102829190614629565b610bc2565b005b610291611236565b60405161029e919061468b565b60405180910390f35b6102c160048036038101906102bc919061438c565b611240565b6040516102d0939291906146a6565b60405180910390f35b6102f360048036038101906102ee91906146dd565b61126a565b604051610300919061468b565b60405180910390f35b610323600480360381019061031e919061438c565b61128f565b604051610330919061468b565b60405180910390f35b610353600480360381019061034e919061438c565b6112aa565b6040516103609190614738565b60405180910390f35b610383600480360381019061037e919061477f565b6112cc565b005b61039f600480360381019061039a919061438c565b61139e565b005b6103a9611526565b6040516103b6919061468b565b60405180910390f35b6103d960048036038101906103d4919061477f565b61152e565b6040516103e6919061468b565b60405180910390f35b6103f7611577565b60405161040491906143fa565b60405180910390f35b610427600480360381019061042291906147ac565b61159d565b005b610443600480360381019061043e919061438c565b6118b6565b6040516104509190614738565b60405180910390f35b610473600480360381019061046e91906147ff565b6118d6565b005b61048f600480360381019061048a919061477f565b611d7d565b005b610499611e4e565b6040516104a691906143fa565b60405180910390f35b6104c960048036038101906104c491906147ff565b611e74565b005b6104d36123ef565b6040516104e0919061468b565b60405180910390f35b61050360048036038101906104fe919061485b565b6123f5565b005b61051f600480360381019061051a919061438c565b612dd8565b60405161052c919061468b565b60405180910390f35b61054f600480360381019061054a91906146dd565b612df3565b60405161055c919061468b565b60405180910390f35b61057f600480360381019061057a9190614b22565b612e18565b005b6105896135d3565b604051610596919061468b565b60405180910390f35b6105b960048036038101906105b49190614b9a565b6135d9565b005b6105c3613997565b6040516105d0919061468b565b60405180910390f35b6105f360048036038101906105ee919061438c565b61399d565b60405161060293929190614bda565b60405180910390f35b61062560048036038101906106209190614c11565b613a07565b005b61062f613c51565b60405161063c919061468b565b60405180910390f35b61065f600480360381019061065a919061438c565b613c58565b60405161067196959493929190614cf7565b60405180910390f35b610682613d5c565b60405161068f91906143fa565b60405180910390f35b6106b260048036038101906106ad9190614d5f565b613d82565b005b6106ce60048036038101906106c9919061477f565b613fce565b005b6106ea60048036038101906106e5919061438c565b6140ed565b6040516106f8929190614dbb565b60405180910390f35b61071b60048036038101906107169190614f46565b614111565b005b601a81600a811061072d57600080fd5b016000915054906101000a900473ffffffffffffffffffffffffffffffffffffffff1681565b601760009054906101000a900460ff16156107a3576040517f08c379a000000000000000000000000000000000000000000000000000000000815260040161079a90614fd4565b60405180910390fd5b6001601760006101000a81548160ff0219169083151502179055506000845111610802576040517f08c379a00000000000000000000000000000000000000000000000000000000081526004016107f990615040565b60405180910390fd5b601884511115610847576040517f08c379a000000000000000000000000000000000000000000000000000000000815260040161083e906150ac565b60405180910390fd5b825184511461088b576040517f08c379a000000000000000000000000000000000000000000000000000000000815260040161088290615118565b60405180910390fd5b82518251146108cf576040517f08c379a00000000000000000000000000000000000000000000000000000000081526004016108c690615118565b60405180910390fd5b60005b84518161ffff161015610ba057600a848261ffff16815181106108f8576108f7615138565b5b602002602001015110610940576040517f08c379a0000000000000000000000000000000000000000000000000000000008152600401610937906151b3565b60405180910390fd5b3373ffffffffffffffffffffffffffffffffffffffff1660116000878461ffff168151811061097257610971615138565b5b6020026020010151815260200190815260200160002060010160009054906101000a900473ffffffffffffffffffffffffffffffffffffffff1673ffffffffffffffffffffffffffffffffffffffff1614610a02576040517f08c379a00000000000000000000000000000000000000000000000000000000081526004016109f99061521f565b60405180910390fd5b60001515610a2d868361ffff1681518110610a2057610a1f615138565b5b60200260200101516112aa565b151514610a6f576040517f08c379a0000000000000000000000000000000000000000000000000000000008152600401610a669061528b565b60405180910390fd5b828161ffff1681518110610a8657610a85615138565b5b602002602001015160136000878461ffff1681518110610aa957610aa8615138565b5b6020026020010151815260200190815260200160002060010181905550610e1082610ad491906152da565b42610adf919061531c565b60136000878461ffff1681518110610afa57610af9615138565b5b6020026020010151815260200190815260200160002060020181905550848161ffff1681518110610b2e57610b2d615138565b5b60200260200101517fa461494b4bb5b609c6502d7cd54f6572aa434d20cd7717a2b0ee197abae9eec9848361ffff1681518110610b6e57610b6d615138565b5b602002602001015184604051610b85929190614dbb565b60405180910390a28080610b989061535e565b9150506108d2565b506000601760006101000a81548160ff02191690831515021790555050505050565b601760009054906101000a900460ff1615610c12576040517f08c379a0000000000000000000000000000000000000000000000000000000008152600401610c0990614fd4565b60405180910390fd5b6001601760006101000a81548160ff021916908315150217905550610c36836112aa565b610c75576040517f08c379a0000000000000000000000000000000000000000000000000000000008152600401610c6c906153d4565b60405180910390fd5b60136000848152602001908152602001600020600001548214610ccd576040517f08c379a0000000000000000000000000000000000000000000000000000000008152600401610cc490615440565b60405180910390fd5b60136000848152602001908152602001600020600101548114610d25576040517f08c379a0000000000000000000000000000000000000000000000000000000008152600401610d1c906154ac565b60405180910390fd5b60006011600085815260200190815260200160002060010160009054906101000a900473ffffffffffffffffffffffffffffffffffffffff1690506000612710602485600a8110610d7957610d78615138565b5b01546013600088815260200190815260200160002060010154610d9c91906152da565b610da691906154fb565b90506000816013600088815260200190815260200160002060010154610dcc919061552c565b9050336011600088815260200190815260200160002060010160006101000a81548173ffffffffffffffffffffffffffffffffffffffff021916908373ffffffffffffffffffffffffffffffffffffffff1602179055506013600087815260200190815260200160002060010154600386600a8110610e4e57610e4d615138565b5b016000828254610e5e919061531c565b9250508190555060136000878152602001908152602001600020600080820160009055600182016000905560028201600090555050601a85600a8110610ea757610ea6615138565b5b0160009054906101000a900473ffffffffffffffffffffffffffffffffffffffff1673ffffffffffffffffffffffffffffffffffffffff166323b872dd3385846040518463ffffffff1660e01b8152600401610f0593929190615560565b6020604051808303816000875af1158015610f24573d6000803e3d6000fd5b505050506040513d601f19601f82011682018060405250810190610f4891906155c3565b50600082111561102b57601a85600a8110610f6657610f65615138565b5b0160009054906101000a900473ffffffffffffffffffffffffffffffffffffffff1673ffffffffffffffffffffffffffffffffffffffff166323b872dd33601960009054906101000a900473ffffffffffffffffffffffffffffffffffffffff16856040518463ffffffff1660e01b8152600401610fe693929190615560565b6020604051808303816000875af1158015611005573d6000803e3d6000fd5b505050506040513d601f19601f8201168201806040525081019061102991906155c3565b505b6011600087815260200190815260200160002060020154601260008573ffffffffffffffffffffffffffffffffffffffff1673ffffffffffffffffffffffffffffffffffffffff1681526020019081526020016000206000828254611090919061552c565b925050819055506011600087815260200190815260200160002060020154601260003373ffffffffffffffffffffffffffffffffffffffff1673ffffffffffffffffffffffffffffffffffffffff16815260200190815260200160002060008282546110fc919061531c565b92505081905550857f837ebae0d82e9b2e4a3296822f99dfb8a51ff0fb2b7cbde01ce97aad8ea9fde260405160405180910390a285600260006001548152602001908152602001600020600001819055508260026000600154815260200190815260200160002060010160006101000a81548173ffffffffffffffffffffffffffffffffffffffff021916908373ffffffffffffffffffffffffffffffffffffffff1602179055503360026000600154815260200190815260200160002060020160006101000a81548173ffffffffffffffffffffffffffffffffffffffff021916908373ffffffffffffffffffffffffffffffffffffffff1602179055506001600081548092919061120e906155f0565b91905055505050506000601760006101000a81548160ff021916908315150217905550505050565b6000601654905090565b60136020528060005260406000206000915090508060000154908060010154908060020154905083565b600f602052816000526040600020602052806000526040600020600091509150505481565b600381600a811061129f57600080fd5b016000915090505481565b6000426013600084815260200190815260200160002060020154119050919050565b60008054906101000a900473ffffffffffffffffffffffffffffffffffffffff1673ffffffffffffffffffffffffffffffffffffffff163373ffffffffffffffffffffffffffffffffffffffff161461135a576040517f08c379a000000000000000000000000000000000000000000000000000000000815260040161135190615684565b60405180910390fd5b80601960006101000a81548173ffffffffffffffffffffffffffffffffffffffff021916908373ffffffffffffffffffffffffffffffffffffffff16021790555050565b601760009054906101000a900460ff16156113ee576040517f08c379a00000000000000000000000000000000000000000000000000000000081526004016113e590614fd4565b60405180910390fd5b6001601760006101000a81548160ff0219169083151502179055503373ffffffffffffffffffffffffffffffffffffffff166011600083815260200190815260200160002060010160009054906101000a900473ffffffffffffffffffffffffffffffffffffffff1673ffffffffffffffffffffffffffffffffffffffff16146114ad576040517f08c379a00000000000000000000000000000000000000000000000000000000081526004016114a49061521f565b60405180910390fd5b60136000828152602001908152602001600020600080820160009055600182016000905560028201600090555050807f837ebae0d82e9b2e4a3296822f99dfb8a51ff0fb2b7cbde01ce97aad8ea9fde260405160405180910390a26000601760006101000a81548160ff02191690831515021790555050565b6301406f4081565b6000601260008373ffffffffffffffffffffffffffffffffffffffff1673ffffffffffffffffffffffffffffffffffffffff168152602001908152602001600020549050919050565b601960009054906101000a900473ffffffffffffffffffffffffffffffffffffffff1681565b601760019054906101000a900473ffffffffffffffffffffffffffffffffffffffff1673ffffffffffffffffffffffffffffffffffffffff163373ffffffffffffffffffffffffffffffffffffffff161461162d576040517f08c379a0000000000000000000000000000000000000000000000000000000008152600401611624906156f0565b60405180910390fd5b600015156014600085815260200190815260200160002060009054906101000a900460ff16151514611694576040517f08c379a000000000000000000000000000000000000000000000000000000000815260040161168b9061575c565b60405180910390fd5b60006040518060c001604052808581526020018473ffffffffffffffffffffffffffffffffffffffff168152602001838152602001604051806020016040528060008152508152602001600073ffffffffffffffffffffffffffffffffffffffff16815260200142815250905080601160008681526020019081526020016000206000820151816000015560208201518160010160006101000a81548173ffffffffffffffffffffffffffffffffffffffff021916908373ffffffffffffffffffffffffffffffffffffffff1602179055506040820151816002015560608201518160030190816117859190615988565b5060808201518160040160006101000a81548173ffffffffffffffffffffffffffffffffffffffff021916908373ffffffffffffffffffffffffffffffffffffffff16021790555060a0820151816005015590505081601260008573ffffffffffffffffffffffffffffffffffffffff1673ffffffffffffffffffffffffffffffffffffffff1681526020019081526020016000206000828254611829919061531c565b925050819055508160166000828254611842919061531c565b9250508190555060016014600086815260200190815260200160002060006101000a81548160ff0219169083151502179055507fc619c1c30b367378bda467d6bebdd6f994ab4a6e274528b8707fa97c4752ca488433846040516118a893929190615a80565b60405180910390a150505050565b60146020528060005260406000206000915054906101000a900460ff1681565b601760009054906101000a900460ff1615611926576040517f08c379a000000000000000000000000000000000000000000000000000000000815260040161191d90614fd4565b60405180910390fd5b6001601760006101000a81548160ff0219169083151502179055506000825111611985576040517f08c379a000000000000000000000000000000000000000000000000000000000815260040161197c90615040565b60405180910390fd5b6018825111156119ca576040517f08c379a00000000000000000000000000000000000000000000000000000000081526004016119c1906150ac565b60405180910390fd5b60005b82518161ffff161015611d2657600060116000858461ffff16815181106119f7576119f6615138565b5b6020026020010151815260200190815260200160002090503373ffffffffffffffffffffffffffffffffffffffff168160010160009054906101000a900473ffffffffffffffffffffffffffffffffffffffff1673ffffffffffffffffffffffffffffffffffffffff1614611aa1576040517f08c379a0000000000000000000000000000000000000000000000000000000008152600401611a989061521f565b60405180910390fd5b60001515611ab282600001546112aa565b151514611af4576040517f08c379a0000000000000000000000000000000000000000000000000000000008152600401611aeb9061528b565b60405180910390fd5b600081600201549050848361ffff1681518110611b1457611b13615138565b5b6020026020010151600260006001548152602001908152602001600020600001819055508160010160009054906101000a900473ffffffffffffffffffffffffffffffffffffffff1660026000600154815260200190815260200160002060010160006101000a81548173ffffffffffffffffffffffffffffffffffffffff021916908373ffffffffffffffffffffffffffffffffffffffff1602179055508360026000600154815260200190815260200160002060020160006101000a81548173ffffffffffffffffffffffffffffffffffffffff021916908373ffffffffffffffffffffffffffffffffffffffff16021790555060016000815480929190611c1d906155f0565b9190505550838260010160006101000a81548173ffffffffffffffffffffffffffffffffffffffff021916908373ffffffffffffffffffffffffffffffffffffffff16021790555080601260003373ffffffffffffffffffffffffffffffffffffffff1673ffffffffffffffffffffffffffffffffffffffff1681526020019081526020016000206000828254611cb4919061552c565b9250508190555080601260008673ffffffffffffffffffffffffffffffffffffffff1673ffffffffffffffffffffffffffffffffffffffff1681526020019081526020016000206000828254611d0a919061531c565b9250508190555050508080611d1e9061535e565b9150506119cd565b507fb4931844abb6bb8def64167237944d7efa190de35e85ef8e17b7c5c01bb5c48082604051611d569190615b88565b60405180910390a16000601760006101000a81548160ff0219169083151502179055505050565b60008054906101000a900473ffffffffffffffffffffffffffffffffffffffff1673ffffffffffffffffffffffffffffffffffffffff163373ffffffffffffffffffffffffffffffffffffffff1614611e0b576040517f08c379a0000000000000000000000000000000000000000000000000000000008152600401611e0290615684565b60405180910390fd5b806000806101000a81548173ffffffffffffffffffffffffffffffffffffffff021916908373ffffffffffffffffffffffffffffffffffffffff16021790555050565b601760019054906101000a900473ffffffffffffffffffffffffffffffffffffffff1681565b601860009054906101000a900473ffffffffffffffffffffffffffffffffffffffff1673ffffffffffffffffffffffffffffffffffffffff163373ffffffffffffffffffffffffffffffffffffffff1614611f04576040517f08c379a0000000000000000000000000000000000000000000000000000000008152600401611efb90615bf6565b60405180910390fd5b601760009054906101000a900460ff1615611f54576040517f08c379a0000000000000000000000000000000000000000000000000000000008152600401611f4b90614fd4565b60405180910390fd5b6001601760006101000a81548160ff0219169083151502179055506000825111611fb3576040517f08c379a0000000000000000000000000000000000000000000000000000000008152600401611faa90615040565b60405180910390fd5b601882511115611ff8576040517f08c379a0000000000000000000000000000000000000000000000000000000008152600401611fef906150ac565b60405180910390fd5b60005b82518161ffff16101561239857600060116000858461ffff168151811061202557612024615138565b5b6020026020010151815260200190815260200160002090508273ffffffffffffffffffffffffffffffffffffffff168160010160009054906101000a900473ffffffffffffffffffffffffffffffffffffffff1673ffffffffffffffffffffffffffffffffffffffff16146120cf576040517f08c379a00000000000000000000000000000000000000000000000000000000081526004016120c69061521f565b60405180910390fd5b600015156120e082600001546112aa565b151514612122576040517f08c379a00000000000000000000000000000000000000000000000000000000081526004016121199061528b565b60405180910390fd5b600081600201549050848361ffff168151811061214257612141615138565b5b6020026020010151600260006001548152602001908152602001600020600001819055508160010160009054906101000a900473ffffffffffffffffffffffffffffffffffffffff1660026000600154815260200190815260200160002060010160006101000a81548173ffffffffffffffffffffffffffffffffffffffff021916908373ffffffffffffffffffffffffffffffffffffffff160217905550601860009054906101000a900473ffffffffffffffffffffffffffffffffffffffff1660026000600154815260200190815260200160002060020160006101000a81548173ffffffffffffffffffffffffffffffffffffffff021916908373ffffffffffffffffffffffffffffffffffffffff1602179055506001600081548092919061226d906155f0565b9190505550601860009054906101000a900473ffffffffffffffffffffffffffffffffffffffff168260010160006101000a81548173ffffffffffffffffffffffffffffffffffffffff021916908373ffffffffffffffffffffffffffffffffffffffff16021790555080601260008673ffffffffffffffffffffffffffffffffffffffff1673ffffffffffffffffffffffffffffffffffffffff1681526020019081526020016000206000828254612326919061552c565b9250508190555080601260003373ffffffffffffffffffffffffffffffffffffffff1673ffffffffffffffffffffffffffffffffffffffff168152602001908152602001600020600082825461237c919061531c565b92505081905550505080806123909061535e565b915050611ffb565b507fb4931844abb6bb8def64167237944d7efa190de35e85ef8e17b7c5c01bb5c480826040516123c89190615b88565b60405180910390a16000601760006101000a81548160ff0219169083151502179055505050565b602e5481565b601760009054906101000a900460ff1615612445576040517f08c379a000000000000000000000000000000000000000000000000000000000815260040161243c90614fd4565b60405180910390fd5b6001601760006101000a81548160ff02191690831515021790555060008351116124a4576040517f08c379a000000000000000000000000000000000000000000000000000000000815260040161249b90615040565b60405180910390fd5b81518351146124e8576040517f08c379a00000000000000000000000000000000000000000000000000000000081526004016124df90615118565b60405180910390fd5b815181511461252c576040517f08c379a000000000000000000000000000000000000000000000000000000000815260040161252390615118565b60405180910390fd5b601883511115612571576040517f08c379a0000000000000000000000000000000000000000000000000000000008152600401612568906150ac565b60405180910390fd5b60005b83518161ffff161015612db7576125a8848261ffff168151811061259b5761259a615138565b5b60200260200101516112aa565b6125e7576040517f08c379a00000000000000000000000000000000000000000000000000000000081526004016125de906153d4565b60405180910390fd5b60136000858361ffff168151811061260257612601615138565b5b6020026020010151815260200190815260200160002060000154838261ffff168151811061263357612632615138565b5b60200260200101511461267b576040517f08c379a000000000000000000000000000000000000000000000000000000000815260040161267290615440565b60405180910390fd5b60136000858361ffff168151811061269657612695615138565b5b6020026020010151815260200190815260200160002060010154828261ffff16815181106126c7576126c6615138565b5b60200260200101511461270f576040517f08c379a0000000000000000000000000000000000000000000000000000000008152600401612706906154ac565b60405180910390fd5b600060116000868461ffff168151811061272c5761272b615138565b5b6020026020010151815260200190815260200160002060010160009054906101000a900473ffffffffffffffffffffffffffffffffffffffff16905060006127106024868561ffff168151811061278657612785615138565b5b6020026020010151600a811061279f5761279e615138565b5b015460136000898761ffff16815181106127bc576127bb615138565b5b60200260200101518152602001908152602001600020600101546127e091906152da565b6127ea91906154fb565b905060008160136000898761ffff168151811061280a57612809615138565b5b602002602001015181526020019081526020016000206001015461282e919061552c565b90503360116000898761ffff168151811061284c5761284b615138565b5b6020026020010151815260200190815260200160002060010160006101000a81548173ffffffffffffffffffffffffffffffffffffffff021916908373ffffffffffffffffffffffffffffffffffffffff16021790555060136000888661ffff16815181106128be576128bd615138565b5b60200260200101518152602001908152602001600020600101546003878661ffff16815181106128f1576128f0615138565b5b6020026020010151600a811061290a57612909615138565b5b01600082825461291a919061531c565b9250508190555060136000888661ffff168151811061293c5761293b615138565b5b60200260200101518152602001908152602001600020600080820160009055600182016000905560028201600090555050601a868561ffff168151811061298657612985615138565b5b6020026020010151600a811061299f5761299e615138565b5b0160009054906101000a900473ffffffffffffffffffffffffffffffffffffffff1673ffffffffffffffffffffffffffffffffffffffff166323b872dd3385846040518463ffffffff1660e01b81526004016129fd93929190615560565b6020604051808303816000875af1158015612a1c573d6000803e3d6000fd5b505050506040513d601f19601f82011682018060405250810190612a4091906155c3565b506000821115612b4157601a868561ffff1681518110612a6357612a62615138565b5b6020026020010151600a8110612a7c57612a7b615138565b5b0160009054906101000a900473ffffffffffffffffffffffffffffffffffffffff1673ffffffffffffffffffffffffffffffffffffffff166323b872dd33601960009054906101000a900473ffffffffffffffffffffffffffffffffffffffff16856040518463ffffffff1660e01b8152600401612afc93929190615560565b6020604051808303816000875af1158015612b1b573d6000803e3d6000fd5b505050506040513d601f19601f82011682018060405250810190612b3f91906155c3565b505b60116000888661ffff1681518110612b5c57612b5b615138565b5b6020026020010151815260200190815260200160002060020154601260008573ffffffffffffffffffffffffffffffffffffffff1673ffffffffffffffffffffffffffffffffffffffff1681526020019081526020016000206000828254612bc4919061552c565b9250508190555060116000888661ffff1681518110612be657612be5615138565b5b6020026020010151815260200190815260200160002060020154601260003373ffffffffffffffffffffffffffffffffffffffff1673ffffffffffffffffffffffffffffffffffffffff1681526020019081526020016000206000828254612c4e919061531c565b92505081905550868461ffff1681518110612c6c57612c6b615138565b5b60200260200101517f837ebae0d82e9b2e4a3296822f99dfb8a51ff0fb2b7cbde01ce97aad8ea9fde260405160405180910390a2868461ffff1681518110612cb757612cb6615138565b5b6020026020010151600260006001548152602001908152602001600020600001819055508260026000600154815260200190815260200160002060010160006101000a81548173ffffffffffffffffffffffffffffffffffffffff021916908373ffffffffffffffffffffffffffffffffffffffff1602179055503360026000600154815260200190815260200160002060020160006101000a81548173ffffffffffffffffffffffffffffffffffffffff021916908373ffffffffffffffffffffffffffffffffffffffff16021790555060016000815480929190612d9c906155f0565b91905055505050508080612daf9061535e565b915050612574565b506000601760006101000a81548160ff021916908315150217905550505050565b602481600a8110612de857600080fd5b016000915090505481565b6010602052816000526040600020602052806000526040600020600091509150505481565b601760009054906101000a900460ff1615612e68576040517f08c379a0000000000000000000000000000000000000000000000000000000008152600401612e5f90614fd4565b60405180910390fd5b6001601760006101000a81548160ff0219169083151502179055506000825111612ec7576040517f08c379a0000000000000000000000000000000000000000000000000000000008152600401612ebe90615c62565b60405180910390fd5b6018825111158015612edb57506018815111155b612f1a576040517f08c379a0000000000000000000000000000000000000000000000000000000008152600401612f1190615cce565b60405180910390fd5b600080600d6000815480929190612f30906155f0565b919050555060005b84518110156131a357600060116000878481518110612f5a57612f59615138565b5b60200260200101518152602001908152602001600020905060001515612f8382600001546112aa565b151514612fc5576040517f08c379a0000000000000000000000000000000000000000000000000000000008152600401612fbc9061528b565b60405180910390fd5b3373ffffffffffffffffffffffffffffffffffffffff168160010160009054906101000a900473ffffffffffffffffffffffffffffffffffffffff1673ffffffffffffffffffffffffffffffffffffffff1614613057576040517f08c379a000000000000000000000000000000000000000000000000000000000815260040161304e9061521f565b60405180910390fd5b806002015484613067919061531c565b93508060000154600f6000600d548152602001908152602001600020600084815260200190815260200160002081905550601160008784815181106130af576130ae615138565b5b602002602001015181526020019081526020016000206000808201600090556001820160006101000a81549073ffffffffffffffffffffffffffffffffffffffff0219169055600282016000905560038201600061310d9190614228565b6004820160006101000a81549073ffffffffffffffffffffffffffffffffffffffff0219169055600582016000905550507f54e9d3d6bf8951e4535558a5850039b2eb9776c9a1fa240f1c51d2ee046f4ac786838151811061317257613171615138565b5b6020026020010151604051613187919061468b565b60405180910390a150808061319b906155f0565b915050612f38565b5081601260003373ffffffffffffffffffffffffffffffffffffffff1673ffffffffffffffffffffffffffffffffffffffff16815260200190815260200160002060008282546131f3919061552c565b9250508190555060005b83518110156135335783818151811061321957613218615138565b5b60200260200101516020015182613230919061531c565b9150600061323c61420a565b90506040518060c0016040528082815260200186848151811061326257613261615138565b5b60200260200101516000015173ffffffffffffffffffffffffffffffffffffffff16815260200186848151811061329c5761329b615138565b5b60200260200101516020015181526020018684815181106132c0576132bf615138565b5b60200260200101516040015181526020013373ffffffffffffffffffffffffffffffffffffffff16815260200142815250601160008381526020019081526020016000206000820151816000015560208201518160010160006101000a81548173ffffffffffffffffffffffffffffffffffffffff021916908373ffffffffffffffffffffffffffffffffffffffff1602179055506040820151816002015560608201518160030190816133749190615988565b5060808201518160040160006101000a81548173ffffffffffffffffffffffffffffffffffffffff021916908373ffffffffffffffffffffffffffffffffffffffff16021790555060a082015181600501559050508482815181106133dc576133db615138565b5b602002602001015160200151601260008785815181106133ff576133fe615138565b5b60200260200101516000015173ffffffffffffffffffffffffffffffffffffffff1673ffffffffffffffffffffffffffffffffffffffff1681526020019081526020016000206000828254613454919061531c565b925050819055508060106000600d5481526020019081526020016000206000848152602001908152602001600020819055507fc938b45ce58d6842cdd288a9cfd90953e8c986dc6610dca387abffe00f338fa1818684815181106134bb576134ba615138565b5b6020026020010151600001518785815181106134da576134d9615138565b5b6020026020010151602001518886815181106134f9576134f8615138565b5b60200260200101516040015133604051613517959493929190615cee565b60405180910390a150808061352b906155f0565b9150506131fd565b50808214613576576040517f08c379a000000000000000000000000000000000000000000000000000000000815260040161356d90615dba565b60405180910390fd5b8351600e6000600d548152602001908152602001600020600001819055508251600e6000600d5481526020019081526020016000206001018190555050506000601760006101000a81548160ff0219169083151502179055505050565b60155481565b601760009054906101000a900460ff1615613629576040517f08c379a000000000000000000000000000000000000000000000000000000000815260040161362090614fd4565b60405180910390fd5b6001601760006101000a81548160ff02191690831515021790555060006011600084815260200190815260200160002090503373ffffffffffffffffffffffffffffffffffffffff168160010160009054906101000a900473ffffffffffffffffffffffffffffffffffffffff1673ffffffffffffffffffffffffffffffffffffffff16146136ed576040517f08c379a00000000000000000000000000000000000000000000000000000000081526004016136e49061521f565b60405180910390fd5b600015156136fe82600001546112aa565b151514613740576040517f08c379a00000000000000000000000000000000000000000000000000000000081526004016137379061528b565b60405180910390fd5b60008160020154905083600260006001548152602001908152602001600020600001819055508160010160009054906101000a900473ffffffffffffffffffffffffffffffffffffffff1660026000600154815260200190815260200160002060010160006101000a81548173ffffffffffffffffffffffffffffffffffffffff021916908373ffffffffffffffffffffffffffffffffffffffff1602179055508260026000600154815260200190815260200160002060020160006101000a81548173ffffffffffffffffffffffffffffffffffffffff021916908373ffffffffffffffffffffffffffffffffffffffff1602179055506001600081548092919061384b906155f0565b9190505550828260010160006101000a81548173ffffffffffffffffffffffffffffffffffffffff021916908373ffffffffffffffffffffffffffffffffffffffff16021790555080601260003373ffffffffffffffffffffffffffffffffffffffff1673ffffffffffffffffffffffffffffffffffffffff16815260200190815260200160002060008282546138e2919061552c565b9250508190555080601260008573ffffffffffffffffffffffffffffffffffffffff1673ffffffffffffffffffffffffffffffffffffffff1681526020019081526020016000206000828254613938919061531c565b925050819055507fb89431407dfd60a5e86f8e72464cc5c26436be7df34d5e8bda0906705baaccef8460405161396e919061468b565b60405180910390a150506000601760006101000a81548160ff0219169083151502179055505050565b600d5481565b60026020528060005260406000206000915090508060000154908060010160009054906101000a900473ffffffffffffffffffffffffffffffffffffffff16908060020160009054906101000a900473ffffffffffffffffffffffffffffffffffffffff16905083565b601760009054906101000a900460ff1615613a57576040517f08c379a0000000000000000000000000000000000000000000000000000000008152600401613a4e90614fd4565b60405180910390fd5b6001601760006101000a81548160ff021916908315150217905550600a8310613ab5576040517f08c379a0000000000000000000000000000000000000000000000000000000008152600401613aac906151b3565b60405180910390fd5b3373ffffffffffffffffffffffffffffffffffffffff166011600086815260200190815260200160002060010160009054906101000a900473ffffffffffffffffffffffffffffffffffffffff1673ffffffffffffffffffffffffffffffffffffffff1614613b59576040517f08c379a0000000000000000000000000000000000000000000000000000000008152600401613b509061521f565b60405180910390fd5b60001515613b66856112aa565b151514613ba8576040517f08c379a0000000000000000000000000000000000000000000000000000000008152600401613b9f9061528b565b60405180910390fd5b816013600086815260200190815260200160002060010181905550610e1081613bd191906152da565b42613bdc919061531c565b6013600086815260200190815260200160002060020181905550837fa461494b4bb5b609c6502d7cd54f6572aa434d20cd7717a2b0ee197abae9eec98383604051613c28929190614dbb565b60405180910390a26000601760006101000a81548160ff02191690831515021790555050505050565b6283d60081565b60116020528060005260406000206000915090508060000154908060010160009054906101000a900473ffffffffffffffffffffffffffffffffffffffff1690806002015490806003018054613cad906157ab565b80601f0160208091040260200160405190810160405280929190818152602001828054613cd9906157ab565b8015613d265780601f10613cfb57610100808354040283529160200191613d26565b820191906000526020600020905b815481529060010190602001808311613d0957829003601f168201915b5050505050908060040160009054906101000a900473ffffffffffffffffffffffffffffffffffffffff16908060050154905086565b601860009054906101000a900473ffffffffffffffffffffffffffffffffffffffff1681565b601760009054906101000a900460ff1615613dd2576040517f08c379a0000000000000000000000000000000000000000000000000000000008152600401613dc990614fd4565b60405180910390fd5b6001601760006101000a81548160ff02191690831515021790555060006011600084815260200190815260200160002090503373ffffffffffffffffffffffffffffffffffffffff168160010160009054906101000a900473ffffffffffffffffffffffffffffffffffffffff1673ffffffffffffffffffffffffffffffffffffffff1614613e96576040517f08c379a0000000000000000000000000000000000000000000000000000000008152600401613e8d9061521f565b60405180910390fd5b60001515613ea782600001546112aa565b151514613ee9576040517f08c379a0000000000000000000000000000000000000000000000000000000008152600401613ee09061528b565b60405180910390fd5b81816003019081613efa9190615988565b50428160050181905550338160040160006101000a81548173ffffffffffffffffffffffffffffffffffffffff021916908373ffffffffffffffffffffffffffffffffffffffff1602179055507fc938b45ce58d6842cdd288a9cfd90953e8c986dc6610dca387abffe00f338fa1838260010160009054906101000a900473ffffffffffffffffffffffffffffffffffffffff1683600201548533604051613fa6959493929190615cee565b60405180910390a1506000601760006101000a81548160ff0219169083151502179055505050565b60008054906101000a900473ffffffffffffffffffffffffffffffffffffffff1673ffffffffffffffffffffffffffffffffffffffff163373ffffffffffffffffffffffffffffffffffffffff161461405c576040517f08c379a000000000000000000000000000000000000000000000000000000000815260040161405390615684565b60405180910390fd5b6000602f54146140a1576040517f08c379a000000000000000000000000000000000000000000000000000000000815260040161409890615e26565b60405180910390fd5b6001602f8190555080601860006101000a81548173ffffffffffffffffffffffffffffffffffffffff021916908373ffffffffffffffffffffffffffffffffffffffff16021790555050565b600e6020528060005260406000206000915090508060000154908060010154905082565b60008054906101000a900473ffffffffffffffffffffffffffffffffffffffff1673ffffffffffffffffffffffffffffffffffffffff163373ffffffffffffffffffffffffffffffffffffffff161461419f576040517f08c379a000000000000000000000000000000000000000000000000000000000815260040161419690615684565b60405180910390fd5b600a80146141e2576040517f08c379a00000000000000000000000000000000000000000000000000000000081526004016141d990615e92565b60405180910390fd5b81601a90600a6141f3929190614268565b5080602490600a6142059291906142e5565b505050565b60006015600081548092919061421f906155f0565b91905055905090565b508054614234906157ab565b6000825580601f106142465750614265565b601f0160209004906000526020600020908101906142649190614325565b5b50565b82600a81019282156142d4579160200282015b828111156142d35782518260006101000a81548173ffffffffffffffffffffffffffffffffffffffff021916908373ffffffffffffffffffffffffffffffffffffffff1602179055509160200191906001019061427b565b5b5090506142e19190614325565b5090565b82600a8101928215614314579160200282015b828111156143135782518255916020019190600101906142f8565b5b5090506143219190614325565b5090565b5b8082111561433e576000816000905550600101614326565b5090565b6000604051905090565b600080fd5b600080fd5b6000819050919050565b61436981614356565b811461437457600080fd5b50565b60008135905061438681614360565b92915050565b6000602082840312156143a2576143a161434c565b5b60006143b084828501614377565b91505092915050565b600073ffffffffffffffffffffffffffffffffffffffff82169050919050565b60006143e4826143b9565b9050919050565b6143f4816143d9565b82525050565b600060208201905061440f60008301846143eb565b92915050565b600080fd5b6000601f19601f8301169050919050565b7f4e487b7100000000000000000000000000000000000000000000000000000000600052604160045260246000fd5b6144638261441a565b810181811067ffffffffffffffff821117156144825761448161442b565b5b80604052505050565b6000614495614342565b90506144a1828261445a565b919050565b600067ffffffffffffffff8211156144c1576144c061442b565b5b602082029050602081019050919050565b600080fd5b60006144ea6144e5846144a6565b61448b565b9050808382526020820190506020840283018581111561450d5761450c6144d2565b5b835b8181101561453657806145228882614377565b84526020840193505060208101905061450f565b5050509392505050565b600082601f83011261455557614554614415565b5b81356145658482602086016144d7565b91505092915050565b600080600080608085870312156145885761458761434c565b5b600085013567ffffffffffffffff8111156145a6576145a5614351565b5b6145b287828801614540565b945050602085013567ffffffffffffffff8111156145d3576145d2614351565b5b6145df87828801614540565b935050604085013567ffffffffffffffff811115614600576145ff614351565b5b61460c87828801614540565b925050606061461d87828801614377565b91505092959194509250565b6000806000606084860312156146425761464161434c565b5b600061465086828701614377565b935050602061466186828701614377565b925050604061467286828701614377565b9150509250925092565b61468581614356565b82525050565b60006020820190506146a0600083018461467c565b92915050565b60006060820190506146bb600083018661467c565b6146c8602083018561467c565b6146d5604083018461467c565b949350505050565b600080604083850312156146f4576146f361434c565b5b600061470285828601614377565b925050602061471385828601614377565b9150509250929050565b60008115159050919050565b6147328161471d565b82525050565b600060208201905061474d6000830184614729565b92915050565b61475c816143d9565b811461476757600080fd5b50565b60008135905061477981614753565b92915050565b6000602082840312156147955761479461434c565b5b60006147a38482850161476a565b91505092915050565b6000806000606084860312156147c5576147c461434c565b5b60006147d386828701614377565b93505060206147e48682870161476a565b92505060406147f586828701614377565b9150509250925092565b600080604083850312156148165761481561434c565b5b600083013567ffffffffffffffff81111561483457614833614351565b5b61484085828601614540565b92505060206148518582860161476a565b9150509250929050565b6000806000606084860312156148745761487361434c565b5b600084013567ffffffffffffffff81111561489257614891614351565b5b61489e86828701614540565b935050602084013567ffffffffffffffff8111156148bf576148be614351565b5b6148cb86828701614540565b925050604084013567ffffffffffffffff8111156148ec576148eb614351565b5b6148f886828701614540565b9150509250925092565b600067ffffffffffffffff82111561491d5761491c61442b565b5b602082029050602081019050919050565b600080fd5b600080fd5b600080fd5b600067ffffffffffffffff8211156149585761495761442b565b5b6149618261441a565b9050602081019050919050565b82818337600083830152505050565b600061499061498b8461493d565b61448b565b9050828152602081018484840111156149ac576149ab614938565b5b6149b784828561496e565b509392505050565b600082601f8301126149d4576149d3614415565b5b81356149e484826020860161497d565b91505092915050565b600060608284031215614a0357614a0261492e565b5b614a0d606061448b565b90506000614a1d8482850161476a565b6000830152506020614a3184828501614377565b602083015250604082013567ffffffffffffffff811115614a5557614a54614933565b5b614a61848285016149bf565b60408301525092915050565b6000614a80614a7b84614902565b61448b565b90508083825260208201905060208402830185811115614aa357614aa26144d2565b5b835b81811015614aea57803567ffffffffffffffff811115614ac857614ac7614415565b5b808601614ad589826149ed565b85526020850194505050602081019050614aa5565b5050509392505050565b600082601f830112614b0957614b08614415565b5b8135614b19848260208601614a6d565b91505092915050565b60008060408385031215614b3957614b3861434c565b5b600083013567ffffffffffffffff811115614b5757614b56614351565b5b614b6385828601614540565b925050602083013567ffffffffffffffff811115614b8457614b83614351565b5b614b9085828601614af4565b9150509250929050565b60008060408385031215614bb157614bb061434c565b5b6000614bbf85828601614377565b9250506020614bd08582860161476a565b9150509250929050565b6000606082019050614bef600083018661467c565b614bfc60208301856143eb565b614c0960408301846143eb565b949350505050565b60008060008060808587031215614c2b57614c2a61434c565b5b6000614c3987828801614377565b9450506020614c4a87828801614377565b9350506040614c5b87828801614377565b9250506060614c6c87828801614377565b91505092959194509250565b600081519050919050565b600082825260208201905092915050565b60005b83811015614cb2578082015181840152602081019050614c97565b60008484015250505050565b6000614cc982614c78565b614cd38185614c83565b9350614ce3818560208601614c94565b614cec8161441a565b840191505092915050565b600060c082019050614d0c600083018961467c565b614d1960208301886143eb565b614d26604083018761467c565b8181036060830152614d388186614cbe565b9050614d4760808301856143eb565b614d5460a083018461467c565b979650505050505050565b60008060408385031215614d7657614d7561434c565b5b6000614d8485828601614377565b925050602083013567ffffffffffffffff811115614da557614da4614351565b5b614db1858286016149bf565b9150509250929050565b6000604082019050614dd0600083018561467c565b614ddd602083018461467c565b9392505050565b600067ffffffffffffffff821115614dff57614dfe61442b565b5b602082029050919050565b6000614e1d614e1884614de4565b61448b565b90508060208402830185811115614e3757614e366144d2565b5b835b81811015614e605780614e4c888261476a565b845260208401935050602081019050614e39565b5050509392505050565b600082601f830112614e7f57614e7e614415565b5b600a614e8c848285614e0a565b91505092915050565b600067ffffffffffffffff821115614eb057614eaf61442b565b5b602082029050919050565b6000614ece614ec984614e95565b61448b565b90508060208402830185811115614ee857614ee76144d2565b5b835b81811015614f115780614efd8882614377565b845260208401935050602081019050614eea565b5050509392505050565b600082601f830112614f3057614f2f614415565b5b600a614f3d848285614ebb565b91505092915050565b6000806102808385031215614f5e57614f5d61434c565b5b6000614f6c85828601614e6a565b925050610140614f7e85828601614f1b565b9150509250929050565b7f4e6f207265656e7472616e637920616c6c6f7765642100000000000000000000600082015250565b6000614fbe601683614c83565b9150614fc982614f88565b602082019050919050565b60006020820190508181036000830152614fed81614fb1565b9050919050565b7f496420617272617920656d707479000000000000000000000000000000000000600082015250565b600061502a600e83614c83565b915061503582614ff4565b602082019050919050565b600060208201905081810360008301526150598161501d565b9050919050565b7f457863656564204d6178205472616e73666572204c696d697473283234290000600082015250565b6000615096601e83614c83565b91506150a182615060565b602082019050919050565b600060208201905081810360008301526150c581615089565b9050919050565b7f6e6565642073616d65206c656e67746800000000000000000000000000000000600082015250565b6000615102601083614c83565b915061510d826150cc565b602082019050919050565b60006020820190508181036000830152615131816150f5565b9050919050565b7f4e487b7100000000000000000000000000000000000000000000000000000000600052603260045260246000fd5b7f6572722055534400000000000000000000000000000000000000000000000000600082015250565b600061519d600783614c83565b91506151a882615167565b602082019050919050565b600060208201905081810360008301526151cc81615190565b9050919050565b7f43465873206e6f74206f776e65642062792073656e6465720000000000000000600082015250565b6000615209601883614c83565b9150615214826151d3565b602082019050919050565b60006020820190508181036000830152615238816151fc565b9050919050565b7f416c7265616479206c6f636b6564000000000000000000000000000000000000600082015250565b6000615275600e83614c83565b91506152808261523f565b602082019050919050565b600060208201905081810360008301526152a481615268565b9050919050565b7f4e487b7100000000000000000000000000000000000000000000000000000000600052601160045260246000fd5b60006152e582614356565b91506152f083614356565b92508282026152fe81614356565b91508282048414831517615315576153146152ab565b5b5092915050565b600061532782614356565b915061533283614356565b925082820190508082111561534a576153496152ab565b5b92915050565b600061ffff82169050919050565b600061536982615350565b915061ffff820361537d5761537c6152ab565b5b600182019050919050565b7f4e6f74206c6f636b656400000000000000000000000000000000000000000000600082015250565b60006153be600a83614c83565b91506153c982615388565b602082019050919050565b600060208201905081810360008301526153ed816153b1565b9050919050565b7f5553442074797065206572720000000000000000000000000000000000000000600082015250565b600061542a600c83614c83565b9150615435826153f4565b602082019050919050565b600060208201905081810360008301526154598161541d565b9050919050565b7f77726f6e6720616d6f756e740000000000000000000000000000000000000000600082015250565b6000615496600c83614c83565b91506154a182615460565b602082019050919050565b600060208201905081810360008301526154c581615489565b9050919050565b7f4e487b7100000000000000000000000000000000000000000000000000000000600052601260045260246000fd5b600061550682614356565b915061551183614356565b925082615521576155206154cc565b5b828204905092915050565b600061553782614356565b915061554283614356565b925082820390508181111561555a576155596152ab565b5b92915050565b600060608201905061557560008301866143eb565b61558260208301856143eb565b61558f604083018461467c565b949350505050565b6155a08161471d565b81146155ab57600080fd5b50565b6000815190506155bd81615597565b92915050565b6000602082840312156155d9576155d861434c565b5b60006155e7848285016155ae565b91505092915050565b60006155fb82614356565b91507fffffffffffffffffffffffffffffffffffffffffffffffffffffffffffffffff820361562d5761562c6152ab565b5b600182019050919050565b7f4f6e6c792073657474696e672100000000000000000000000000000000000000600082015250565b600061566e600d83614c83565b915061567982615638565b602082019050919050565b6000602082019050818103600083015261569d81615661565b9050919050565b7f4f6e6c79204f4c64204e65772042726964676521000000000000000000000000600082015250565b60006156da601483614c83565b91506156e5826156a4565b602082019050919050565b60006020820190508181036000830152615709816156cd565b9050919050565b7f43465873204964206973206d696e746564210000000000000000000000000000600082015250565b6000615746601283614c83565b915061575182615710565b602082019050919050565b6000602082019050818103600083015261577581615739565b9050919050565b7f4e487b7100000000000000000000000000000000000000000000000000000000600052602260045260246000fd5b600060028204905060018216806157c357607f821691505b6020821081036157d6576157d561577c565b5b50919050565b60008190508160005260206000209050919050565b60006020601f8301049050919050565b600082821b905092915050565b60006008830261583e7fffffffffffffffffffffffffffffffffffffffffffffffffffffffffffffffff82615801565b6158488683615801565b95508019841693508086168417925050509392505050565b6000819050919050565b600061588561588061587b84614356565b615860565b614356565b9050919050565b6000819050919050565b61589f8361586a565b6158b36158ab8261588c565b84845461580e565b825550505050565b600090565b6158c86158bb565b6158d3818484615896565b505050565b5b818110156158f7576158ec6000826158c0565b6001810190506158d9565b5050565b601f82111561593c5761590d816157dc565b615916846157f1565b81016020851015615925578190505b615939615931856157f1565b8301826158d8565b50505b505050565b600082821c905092915050565b600061595f60001984600802615941565b1980831691505092915050565b6000615978838361594e565b9150826002028217905092915050565b61599182614c78565b67ffffffffffffffff8111156159aa576159a961442b565b5b6159b482546157ab565b6159bf8282856158fb565b600060209050601f8311600181146159f257600084156159e0578287015190505b6159ea858261596c565b865550615a52565b601f198416615a00866157dc565b60005b82811015615a2857848901518255600182019150602085019450602081019050615a03565b86831015615a455784890151615a41601f89168261594e565b8355505b6001600288020188555050505b505050505050565b50565b6000615a6a600083614c83565b9150615a7582615a5a565b600082019050919050565b6000608082019050615a95600083018661467c565b615aa260208301856143eb565b615aaf604083018461467c565b8181036060830152615ac081615a5d565b9050949350505050565b600081519050919050565b600082825260208201905092915050565b6000819050602082019050919050565b615aff81614356565b82525050565b6000615b118383615af6565b60208301905092915050565b6000602082019050919050565b6000615b3582615aca565b615b3f8185615ad5565b9350615b4a83615ae6565b8060005b83811015615b7b578151615b628882615b05565b9750615b6d83615b1d565b925050600181019050615b4e565b5085935050505092915050565b60006020820190508181036000830152615ba28184615b2a565b905092915050565b7f4f6e6c7920455243206272696467652100000000000000000000000000000000600082015250565b6000615be0601083614c83565b9150615beb82615baa565b602082019050919050565b60006020820190508181036000830152615c0f81615bd3565b9050919050565b7f5f696e7075747320617272617920656d70747900000000000000000000000000600082015250565b6000615c4c601383614c83565b9150615c5782615c16565b602082019050919050565b60006020820190508181036000830152615c7b81615c3f565b9050919050565b7f546f6f206c6f6e6720696e707574732f6f757470757473206c656e6774682100600082015250565b6000615cb8601f83614c83565b9150615cc382615c82565b602082019050919050565b60006020820190508181036000830152615ce781615cab565b9050919050565b600060a082019050615d03600083018861467c565b615d1060208301876143eb565b615d1d604083018661467c565b8181036060830152615d2f8185614cbe565b9050615d3e60808301846143eb565b9695505050505050565b7f496e70757420616e64206f757470757420616d6f756e747320646f206e6f742060008201527f6d61746368000000000000000000000000000000000000000000000000000000602082015250565b6000615da4602583614c83565b9150615daf82615d48565b604082019050919050565b60006020820190508181036000830152615dd381615d97565b9050919050565b7f4f6e6c7920736574206f6e636521000000000000000000000000000000000000600082015250565b6000615e10600e83614c83565b9150615e1b82615dda565b602082019050919050565b60006020820190508181036000830152615e3f81615e03565b9050919050565b7f6c656e6774682065727200000000000000000000000000000000000000000000600082015250565b6000615e7c600a83614c83565b9150615e8782615e46565b602082019050919050565b60006020820190508181036000830152615eab81615e6f565b905091905056fea2646970667358221220494528e8edabbf955d0abde3f107f337d202d298bd44ea415718fadef6f8128464736f6c63430008130033",
    "linkReferences": {},
    "deployedLinkReferences": {}
}